:1000000000800120E1040000656101001D51000035
:1000100000000000000000000000000000000000E0
:1000200000000000000000000000000091A9000096
:100030000000000000000000B1AA0000F9AA0000C2
:100040004105000045050000490500004D05000080
:1000500029050000290500002905000029050000E8
:100060005105000055050000590500002905000054
:100070005D05000029050000290500002905000094
:1000800029050000290500002905000029050000B8
:1000900029050000290500002905000029050000A8
:1000A0002905000029050000290500002905000098
:1000B0002905000061050000290500002905000050
:10040000FFFFFFFFFFFFFFFFFFFFFFFFFEFFFFFFFD
:1004200010B5064C2378002B07D1054B002B02D0CA
:10043000044800E000BF0123237010BDA086FF1F09
:100440000000000058B30100044B10B5002B03D08E
:100450000349044800E000BF10BDC0460000000092
:10046000A486FF1F58B30100164B002B00D1144B7C
:100470009D46402292029A1A924600218B460F46D0
:100480001348144A121A16F0F9F90F4B002B00D03A
:1004900098470E4B002B00D0984700200021040005
:1004A0000D000D48002802D00C4816F0FFFA16F097
:1004B0007DF92000290010F0FBFE16F067F9C04618
:1004C0000000080000800120000000000000000083
:1004D000A086FF1F98BFFF1FAD6A0100BD6A010023
:1004E00072B60A480A4901600A6882F30888094816
:1004F00080470949094A0A4B9B1A03DD043BC85847
:10050000D050FBDC62B607488047000008ED00E0F1
:1005100000000000316701009CB30100C080FF1F94
:100520009C86FF1F690400000E4800470E480047E4
:100530000E4800470E4800470E4800470E48004747
:100540000E4800470E4800470E4800470E48004737
:100550000E4800470E4800470E4800470E48004727
:100560000E48004729050000656101001D5100008B
:1005700091A90000B1AA0000F9AA00002905000015
:10058000290500002905000029050000914501000A
:10059000B1450100953E0100F54B0100C93E010047
:1005A000002243088B4274D303098B425FD3030AB2
:1005B0008B4244D3030B8B4228D3030C8B420DD3C5
:1005C000FF22090212BA030C8B4202D31212090253
:1005D00065D0030B8B4219D300E0090AC30B8B4291
:1005E00001D3CB03C01A5241830B8B4201D38B033F
:1005F000C01A5241430B8B4201D34B03C01A5241E4
:10060000030B8B4201D30B03C01A5241C30A8B4226
:1006100001D3CB02C01A5241830A8B4201D38B0211
:10062000C01A5241430A8B4201D34B02C01A5241B5
:10063000030A8B4201D30B02C01A5241CDD2C30927
:100640008B4201D3CB01C01A524183098B4201D3A3
:100650008B01C01A524143098B4201D34B01C01A8E
:10066000524103098B4201D30B01C01A5241C30806
:100670008B4201D3CB00C01A524183088B4201D375
:100680008B00C01A524143088B4201D34B00C01A61
:100690005241411A00D20146524110467047FFE7CD
:1006A00001B5002000F0F0F802BDC0460029F7D0E7
:1006B00076E7704703460B437FD4002243088B4202
:1006C00074D303098B425FD3030A8B4244D3030BD9
:1006D0008B4228D3030C8B420DD3FF22090212BA9E
:1006E000030C8B4202D31212090265D0030B8B421A
:1006F00019D300E0090AC30B8B4201D3CB03C01A04
:100700005241830B8B4201D38B03C01A5241430BDE
:100710008B4201D34B03C01A5241030B8B4201D3CE
:100720000B03C01A5241C30A8B4201D3CB02C01A39
:100730005241830A8B4201D38B02C01A5241430AB1
:100740008B4201D34B02C01A5241030A8B4201D3A0
:100750000B02C01A5241CDD2C3098B4201D3CB0147
:10076000C01A524183098B4201D38B01C01A5241F6
:1007700043098B4201D34B01C01A524103098B42FA
:1007800001D30B01C01A5241C3088B4201D3CB00E5
:10079000C01A524183088B4201D38B00C01A5241C8
:1007A00043088B4201D34B00C01A5241411A00D278
:1007B00001465241104670475DE0CA0F00D04942E1
:1007C000031000D34042534000229C4603098B4251
:1007D0002DD3030A8B4212D3FC22890112BA030AD9
:1007E0008B420CD3890192118B4208D3890192115B
:1007F0008B4204D389013AD0921100E08909C309E0
:100800008B4201D3CB01C01A524183098B4201D3E1
:100810008B01C01A524143098B4201D34B01C01ACC
:10082000524103098B4201D30B01C01A5241C30844
:100830008B4201D3CB00C01A524183088B4201D3B3
:100840008B00C01A5241D9D243088B4201D34B00CE
:10085000C01A5241411A00D20146634652415B1010
:10086000104601D34042002B00D5494270476346F1
:100870005B1000D3404201B5002000F005F802BD36
:100880000029F8D016E770477047C0468446081C18
:100890006146FFE71FB500F079FC002801D4002174
:1008A000C8421FBD10B500F0FBFB4042013010BD37
:1008B00010B500F06BFC002801DB002010BD01200A
:1008C00010BDC04610B500F061FC002801DD00201D
:1008D00010BD012010BDC04610B500F009FC002875
:1008E00001DC002010BD012010BDC04610B500F095
:1008F000FFFB002801DA002010BD012010BDC0461A
:10090000002B11D1002A0FD1002900D1002802D0DC
:100910000021C943081C07B4024802A140180290F4
:1009200003BDC04665FFFFFF03B4684601B50298EA
:1009300000F048F8019B9E4602B00CBC7047C046D0
:10094000F0B5CE46474615042D0C2E0080B50704A1
:10095000140C3F0C9946030C7E435D43674363438D
:100960007F19340CE4199C46A54203D980235B020D
:100970009846C4444B4643435143250C36046544D2
:10098000360C2404A4195B19591820000CBC90469D
:100990009946F0BD9E2110B5C905041CFFF7A6FFBE
:1009A000002803D1201C00F037FF10BD9E21201C21
:1009B000C90500F06DFD00F02FFF80231B069C464B
:1009C0006044F2E7F0B54F464646D646C0B504004F
:1009D00082B00D00914698468B422FD82CD04146CC
:1009E000484600F0E1FF29000600200000F0DCFF8F
:1009F000331A9C46203B9A4600D576E04B46524639
:100A000093401F004B46624693401E00AF4228D8D9
:100A100025D05346A41BBD41002B00DA7BE0002209
:100A20000023009201930123524693400193012336
:100A300062469340009318E08242D0D900220023FE
:100A4000009201930A9B002B01D01C605D6000980E
:100A5000019902B01CBC90469946A246F0BDA34243
:100A6000D7D900220023009201936346002BE9D0DE
:100A7000FB079846414672080A437B0866460EE02B
:100A8000AB4201D1A2420CD8A41A9D4101202419E5
:100A90006D410021013E24184D41002E06D0AB428D
:100AA000EED9013E24196D41002EF8D1009801992C
:100AB000534600196941002B23DB2B005246D340DB
:100AC0002A006446E2401C0053461500002B2DDB33
:100AD00026005746BE40330026006746BE4032001F
:100AE000801A994100900191ACE7624620239B1A3D
:100AF0004A46DA406146130042468A4017001F43C7
:100B000080E7624620239B1A2A0066469A4023000B
:100B1000F3401343D4E76246202300219B1A0022AE
:100B2000009101920122DA40019280E7202362467F
:100B300026009B1ADE402F00B0466646B740464668
:100B40003B003343C8E7C046F8B54746CE464302AC
:100B50005B0A4400C20F9C464800DD004B02240E95
:100B60005B0A000E80B5984626009146C90FDB004F
:100B7000271A8A4229D0002F15DD00284AD1002BE0
:100B800000D095E0ED08FF2C00D188E06B025B0AF5
:100B9000E6B25B02F605580A3043D20710430CBC9C
:100BA00090469946F8BD002F00D087E0601CC0B287
:100BB000012800DCB6E0EE1A720100D5C5E0002E77
:100BC0003DD1002200260023E3E7002F00DC96E061
:100BD00000285DD0FF2C60D08022D20413431B2F4D
:100BE00000DDECE02022D21B18009340F8405A1E92
:100BF00093410343ED186B017BD50134FF2C00D1E9
:100C0000B7E0012207262A406B089A4D1D40154384
:100C10002E4029E0FF2CB5D08022D20413431B2F95
:100C200000DDB2E02022D21B19009340F9405A1E89
:100C300093410B43ED1A6B015BD5AD01AE0930005A
:100C400000F094FE05388640844265DC041B3300C6
:100C500020200134E340041BA640751EAE413343FF
:100C600007261D0000241E4001224B461A40002E7C
:100C700004D00F232B40042B00D004356B0100D48B
:100C800080E70134E6B2FF2C2FD1FF26002380E756
:100C9000002B52D1FF2C00D074E70A00ED08002D84
:100CA000F3D08023DB032B435B025B0AFF2670E754
:100CB000013F002FBED0FF2CB1D163E7002C47D0FD
:100CC000FF2869D08024E4047A4225431B2A00DDF2
:100CD000C5E02C002026D440B21A95406A1E9541EA
:100CE00025435D1B04008946A5E7AB015B0A50E77D
:100CF000002401224B461A406B07BAD142E7002F6D
:100D00003BD10134E0B201284ADDFF2CBDD00726DB
:100D1000ED186D082E40A7E70723574D241A3540DC
:100D20001E40A1E7002C1BD1002D6ED1002B00D15D
:100D30009AE00A001D003C0024E7013F002F00D18B
:100D400058E7FF2C00D04AE7A7E75E1B894676E705
:100D5000002D1CD10A00FF281FD004001D0011E740
:100D6000002D5DD1002B17D180230022DB03FF264D
:100D70000FE70A00FF2600230BE7002C21D1002DEE
:100D800066D1FF28E9D11D0087E7012352E77A1CCD
:100D9000A7D0FA43FF2899D10A001D00FF24F1E6ED
:100DA000002E21D1002D4FD0002B4CD0ED186B011F
:100DB0009ED5314B07362E4001241D4054E70123B8
:100DC00018E7FF28DFD08024E4047F4225431B2F4F
:100DD0004DDC2026F61B2C00B540FC406A1E9541D8
:100DE0002543ED18040006E7002DCCD0002B00D1E0
:100DF00053E780216046C903084203D040460842B9
:100E000000D11D000121114047E7002B00D1B9E6B8
:100E1000EA1A500125D507265D1B2E40894623E797
:100E2000FF24002B00D1ADE680226046D2031042A1
:100E300004D04046104201D11D00894601224B4694
:100E4000FF241A409EE62B00DD080A0000249DE6E0
:100E50007A1CC6D0FF43FF28B9D11D001DE701252C
:100E60003FE7151E00D044E70022002391E601254C
:100E7000B7E7C046FFFFFF7DFFFFFFFBF8B5574612
:100E80004E464546DE464402E0B546008846640AC2
:100E9000360EC70F002E63D0FF2E24D08023E4002F
:100EA000DB041C43002399469B467F3E4346424653
:100EB0005D02D20F5B006D0A1B0E9046924665D014
:100EC000FF2B55D080220021ED00D2047F3B15433B
:100ED000F61A43464A467B400F2A00D98DE06D48FA
:100EE000920082589746002C54D108239946063B1D
:100EF000FF269B46DAE70025534602291BD003292B
:100F000000D1BFE0012928D030007F30002820DD4B
:100F10006A0704D00F222A40042A00D004352A018F
:100F200003D530005C4A80301540FE2803DCAC015C
:100F3000640AC2B201E0FF2200246402D205600A02
:100F4000DB07104318433CBC90469946A246AB468B
:100F5000F8BD0122101A1B287CDD00220024ECE7DA
:100F6000002C1DD104239946033B00269B469DE798
:100F7000FF3E002D20D1022143464A467B400A43D2
:100F80000F2AD8D84548920082589746002D19D18B
:100F90000121F1E70C239946093BFF269B4685E793
:100FA000200000F0E3FC7626431F9C40002376429D
:100FB000361A99469B4679E74A4603231A439146D7
:100FC000032186E7280000F0D1FC431F36189D401E
:100FD000763600217DE780240023E403FF22ACE77E
:100FE00000258023DB031C4228D01D4226D12B4341
:100FF0005C02640A4346FF229FE762016C01A24241
:1010000024D21B210025013E012710006D00520053
:10101000002801DB944201D8121B3D43013900290D
:10102000F3D11400621E944125436DE7BA46594638
:1010300025005346022900D061E77CE78023DB03CB
:101040001C436402640A3B00FF2276E7121B1A214C
:101050000125D9E79E362A00B5402C00C240651E06
:10106000AC411443620704D00F222240042A00D06E
:101070000434620103D4A401640A00225DE7012262
:1010800000245AE78024E4032C436402640AFF220C
:1010900053E7C0467C970100FFFFFFF7BC970100B4
:1010A00070B542004E024C0045026D0A120EC30F8D
:1010B000760A240EC90FFF2A0FD0FF2C11D0012071
:1010C000A24200D070BDB542FCD18B420DD0002AA7
:1010D000F8D12800451EA841F4E70120002DF1D1E8
:1010E000EBE70120002EEDD1E9E70020EAE7C0465A
:1010F00070B54A004E02450244006D0A240EC30F2B
:10110000760A120EC90FFF2C15D0FF2A0ED0002C24
:1011100015D1002A01D1002E1CD0002D14D08B42F5
:1011200027D00220013B1840013870BD002EEED0C0
:1011300002204042F9E7002DFAD1FF2A0ED0002A02
:101140000ED1002EEDD00BE00123013999430800A8
:101150000130EAE70020002DE7D0E2E7002EE7D1DA
:101160008B42DED1944205DD0221581E0840013831
:10117000DBE70024A24204DCB542D2D80020B5420D
:10118000D3D2581E012398430130CEE730B5420038
:1011900044024D02C30F4800640A120E6D0A000E8D
:1011A000C90FFF2A12D0FF280CD0002A12D1002824
:1011B00019D1002D17D1002C2BD00220013B184053
:1011C000013826E0002DF0D0022022E0002CFBD1D7
:1011D000FF281FD000281FD1002D1DD10220013B68
:1011E0001840013815E0002C0ED08B42E5D10022CA
:1011F000904204DCAC42E0D80020AC4209D2581E38
:1012000001239843013004E0012301399943080088
:10121000013030BD002DD7D18B42CED18242E7DDE7
:101220000221581E08400138F3E7C046F0B54E468B
:1012300057464546DE46E0B543025B0A450083B0AB
:101240000F1C99462D0EC60F002D57D0FF2D24D010
:101250008020DB00C0041843002381469A469B4649
:101260007F3D7C027A00FB0F640A120E984623D061
:10127000FF2A4BD0E30080240020E4047F3A1C4383
:10128000AD186B1C47460193534677403A000F2B2D
:1012900048D87D499B00CB589F46002B00D085E065
:1012A00008339A46063B9B467C027A00FB0FFF25DB
:1012B000640A120E9846DBD1002C00D090E0524612
:1012C00001231A4392460120DBE74C46584617009B
:1012D000022824D0032800D1CFE0002200230128D7
:1012E0004DD15802D205400AFF071043384303B0DE
:1012F0003CBC90469946A246AB46F0BD002B5BD164
:1013000004239A46033B00259B46AAE7FF35002CA1
:1013100060D1524602231A4392460220B1E7FF22CF
:101320000023DEE74B461B0C9C464B462604360C3E
:10133000180461463300220C6446000C43434E43BC
:101340005043544380191A0C1218964203D9802135
:1013500049028C4664441B041B0C1004C018830112
:101360005E1EB341800E1843130C1B199B010343EF
:101370001C00230179D5012362081C401443019A03
:101380007F32002A4DDD630704D00F232340042B56
:1013900000D00434230103D53C4B019A1C40803219
:1013A000FE2ABCDCA3015B0AD2B29AE70C239A4660
:1013B000093BFF259B4654E7180000F0D7FA4A4640
:1013C000431F76259A4000236D4291462D1A9A4676
:1013D0009B4646E7524603231A439246032050E7B2
:1013E000200000F0C3FA431F2D1A9C40763D0020D8
:1013F00047E780230027DB03FF2272E7424666E7C8
:101400004C463200584662E780234A46DB031A42C4
:1014100022D01C4220D123435B025B0A4746FF22B5
:101420005FE701239A1A1B2A21DC23000199D3408C
:101430009E318C401A0023005C1EA34113435A07BF
:1014400004D00F221A40042A00D004335A0111D4C8
:101450009B015B0A002244E780234A46DB031343D7
:101460005B025B0A3700FF223BE7019587E700221A
:10147000002336E70122002333E78023DB032343E5
:101480005B025B0AFF222CE7FC970100FFFFFFF7DE
:10149000F8B54746CE464400C20F80B54702480221
:1014A000400A8446664648007F0A240EF60025005E
:1014B0009046FB00000EC90FB146FF2800D185E021
:1014C00001267140261A914257D0002E43DD002894
:1014D00000D07FE04946002900D1AAE0013E002E5D
:1014E00000D0F7E05B1A5A0100D48BE09B019C0905
:1014F000200000F03BFA05388440854200DDD3E04F
:10150000451B230020200135EB40451BAC40621EEB
:1015100094412343072400251C40012241460A40F0
:10152000002C04D00F211940042900D004335901A4
:1015300000D480E00135ECB2FF2D00D0A3E0FF2401
:1015400000235B02E405580AD207204310430CBC79
:1015500090469946F8BD002E74D1601CC0B2012897
:1015600000DCA7E04A469C1A620100D5B6E0002CD8
:10157000BED1002200240023E3E7002E00DC85E03A
:10158000002846D0FF2C49D080224846D204104380
:10159000814601221B2E09DC20204C46801B844002
:1015A0004A462000F240441EA04102439B185A01C3
:1015B00028D50135FF2D00D1A8E001220724944948
:1015C0001A405B080B4013431C40A6E7002E00D0D6
:1015D00078E775E7FF2C54D080224946D2041143A6
:1015E000894601221B2E09DC20214846891B8840A0
:1015F0004A460100F240481E81410A439B1A5A01A3
:1016000000D573E7012241460A40590700D089E717
:1016100011E04846002858D1FF2C0CD1DB08002BE4
:1016200000D18CE78020C00303435B025B0AFF24E8
:1016300087E7FF2C25D0DB08FF2DF0D05B025B0A8B
:10164000ECB27EE7002C4DD0FF2818D08024E404B3
:10165000724223431B2A00DDC4E01C002025D44035
:10166000AA1A93405A1E934123434A460500D31AAF
:10167000884638E7721CF8D0F243FF28EAD10A0006
:101680004B46FF25D7E79B015B0A5AE7002E41D165
:10169000651CE9B2012945DDFF2D00D14FE7072484
:1016A0004B445B081C4038E707225A4B2D1A234055
:1016B000144032E7002C1DD1002B7AD14B46002B71
:1016C00000D191E00A000025B5E7013E002E19D1B6
:1016D0004B446CE7FF2C84D1FF25ACE74A46884693
:1016E000D41A05E7002BC5D10A00FF28C8D0050091
:1016F0004B46A0E7002B49D14B46002B77D00A0080
:10170000FF2598E7FF2C00D043E787E70A00FF2476
:10171000002316E7002C15D1002B57D1FF28E6D166
:101720004B467BE7002C20D1002B57D0494600299F
:1017300053D04B445A0168D50724364A1C40012532
:101740001340EAE6FF28EBD08022D204764213430E
:101750001B2E53DC2025AD1B1A00AB40F2405C1E53
:10176000A34113434B44050021E7002BD8D0494641
:10177000002900D152E78021C9030F4200D14DE773
:101780006046084200D049E74B4647E74846FF25F8
:10179000002800D14FE78022D203174204D06046D0
:1017A000104201D14B46884601224146FF250A409E
:1017B00041E7484600281FD01A1A500120D54A4652
:1017C0000724D31A1C4088460025A6E6741CC9D0FD
:1017D000F643FF28BCD14B4620E799464B460025EF
:1017E000DB082BE7012340E700220023A9E6802342
:1017F0000022DB03FF24A4E600251CE70123B1E758
:10180000002AF1D013000025FCE60025FAE6C046C8
:10181000FFFFFF7DFFFFFFFB41024200C30F490AAC
:10182000120E00207E2A0DD99D2A0CD8802000049B
:101830000143952A0ADC9620821AD1404842002BA7
:1018400000D108007047034A9818FBE7963A914088
:10185000F4E7C046FFFFFF7F70B500283DD0C317F7
:10186000C5185D40C40F280000F080F89E22121AAF
:10187000962A07DCD2B2082833DD08388540680292
:10188000400A23E0992A0BDD052329001B1AD940C1
:1018900003001B339D402B005D1EAB4119430D001F
:1018A000052801DD431F9D402B000F490B406E07AB
:1018B00009D00F263540042D05D004335D0102D533
:1018C0009F220B40121A9B01580AD2B24002D20545
:1018D000400AE4071043204370BD0024002200208A
:1018E000F4E76802400AF1E7FFFFFFFB70B5041E52
:1018F00034D000F03BF89E22121A962A07DCD2B2AE
:1019000008282EDD083884406002400A21E0992A28
:1019100009DD030021001B3399404B1E994105232B
:101920001B1ADC400C43052801DD431F9C402300AB
:101930000D490B40650709D00F252C40042C05D01C
:1019400004335C0102D59F220B40121A9B01580AF6
:10195000D2B24002D205400A104370BD00220020DE
:10196000F7E76002400AF4E7FFFFFFFB1C210123B9
:101970001B04984201D3000C10391B0A984201D372
:10198000000A08391B09984201D30009043902A250
:10199000105C40187047C0460403020201010101B7
:1019A000000000000000000010B5002903D1FFF77F
:1019B000DDFF203002E0081CFFF7D8FF10BDC04655
:1019C000002803D00A4908600020704701207047B2
:1019D00010B5074C20680021064A0023FEF7B0FF2F
:1019E0000422D2430023FEF78BFF2260104610BD75
:1019F000C080FF1FC160A81080B582B000AF7860C2
:101A0000084A094BD358094A1A407B681906C02373
:101A10009B040B4003491343034A8B50C046BD4609
:101A200002B080BD0070044004100000FFFFFFFC06
:101A300080B584B000AF78600A00FB1C1A707B6828
:101A40001B68FB60FB6818229343FB60FB1C1B7840
:101A5000DB0018221340FA681343FB607B68FA68C6
:101A60001A60C046BD4604B080BD000080B500AF1E
:101A7000204B74221A70204B00221A701F4B0B222D
:101A80001A701F4B05221A701A4B14221A701D4B24
:101A900000221A701C4B00221A701C4B00221A7074
:101AA0001B4B00221A701B4B00221A701A4B00228B
:101AB0001A701A4B00221A70194B00221A70194B17
:101AC00000221A70184B00221A70184B00221A704C
:101AD000174B00221A70174B50221A70164B002217
:101AE0001A70164B00221A7003F044F9C046BD4626
:101AF00080BDC0465887FF1F5487FF1F5687FF1FB2
:101B00005787FF1F6887FF1F5C87FF1F5D87FF1FC9
:101B10005E87FF1F5F87FF1F6087FF1F6187FF1FB3
:101B20006287FF1F5587FF1F6487FF1F6587FF1FA1
:101B30006687FF1F5A87FF1FC986FF1F5287FF1F37
:101B400080B582B000AF786039607B681B78032B6A
:101B500004D0062B22D0022B0ED026E07B685B79C6
:101B60001A007B681979154B9954154B1B6808218D
:101B700018000FF09FFA18E0114B1B681021180095
:101B80000FF098FA7B689B78002B03D10D4B012254
:101B90001A700AE00B4B00221A7006E0084B1B6813
:101BA000202118000FF086FAC0467B6818000FF05D
:101BB000E9FC00231800BD4602B080BDD086FF1F9F
:101BC000BC86FF1FC886FF1F80B582B000AF78605B
:101BD00039607B681B78002B12D0012B00D01DE0F0
:101BE0007B689B689B78022B15D17B681A79104B18
:101BF0001A70104B1B68042118000FF05BFA0AE002
:101C00007B681B79002B08D10A4B1B680221180046
:101C10000FF050FA01E0C04600E0C0467B681800B3
:101C20000FF0B0FC00231800BD4602B080BDC046D6
:101C3000CB86FF1FBC86FF1F90B585B000AF7860D4
:101C40000E23FB1800221A807B680122134028D043
:101C5000464B18780E23FB18454901220EF050FB25
:101C6000031E1ED1434B1B78002B05D0404B1B7825
:101C7000180003F075F902E03F4B01221A703B4B4C
:101C80001B780E243A19110018000EF0C9FB3B19FD
:101C90001B88002B05D0394B1B68012118000FF061
:101CA00009FA7B680222134002D0354B01221A70D8
:101CB0007B680422134002D0324B01221A707B68E9
:101CC0004022134002D02F4B01221A707B68082259
:101CD000134016D02C4B1B78062B01D102F0A6FF27
:101CE000294B1B78032B02D1274B04221A70274B58
:101CF0001B78142B02D1264B01221A70254B01228E
:101D00001A707B68102213402BD0234B01221A70CB
:101D1000164B1B782149012218000EF073FC134B5F
:101D20001A781F4B1B78190010000EF075FD0F4B31
:101D30001B781C49012218000EF064FC1A4B1B781A
:101D4000002B07D0094B1B781849012218000EF010
:101D500059FC06E0054B1B781549012218000EF0CE
:101D600051FCC046BD4605B090BDC0465387FF1F1D
:101D70005187FF1F5C87FF1F5287FF1FBC86FF1F15
:101D8000C486FF1FC586FF1F5E87FF1F5D87FF1F7D
:101D9000C686FF1FC986FF1FC786FF1FF06B0100A5
:101DA0005687FF1FFC6B0100C886FF1F046C0100F3
:101DB0000C6C0100B0B588B002AF7860594B1B784D
:101DC000002B57D114F0BEF80FF01EFB0DF018F8E1
:101DD0000FF0B6FC06F08AFF0DF09AFF6421012097
:101DE0000FF02CFE01200FF02DF902004E4B1A606F
:101DF00000F0B2F84D4B1A784D4B1100180002F06C
:101E000089FF4C4B01221A70464B01221A70172190
:101E10007B1801221A7008243B1900221A703B1902
:101E20007A1812785A703B1900229A7014F010FC3C
:101E300014F09EFB0120FFF7DFFD0C257B19180035
:101E400012F0A4FF7B193C4A1900100012F028FF81
:101E5000072011F0C3FC0300391937480193374BB1
:101E600000930123012212F0C1FF334B012118001E
:101E7000FFF7DEFD324B1B78002B33D12A4B18685D
:101E800001235A422F49304B0093130000220FF0D8
:101E900061F92D4B1B681800FFF7CEFE2B4B1B780A
:101EA000002B19D0294B00221A70294B1B780D2BBF
:101EB0000BD10FF0D9FC1C4B1B68802118000FF0D0
:101EC000F9F81F4B01221A700CE0184B1A78184BC6
:101ED0001100180002F01EFF1E4B1B78002B00D0D3
:101EE000CCE7C046164B1B78002B17D00E4B18685A
:101EF00001235A421349144B0093130000220FF0A0
:101F000029F9114B1B681800FFF796FE00F090F8B6
:101F1000104B1B78002B00D0E8E7C046C046BD46FA
:101F200006B0B0BD8788FF1FBC86FF1F5387FF1F09
:101F3000289901005D87FF1F00A00340C05D0000DD
:101F40008888FF1FFF010000C086FF1F5287FF1F08
:101F50005187FF1F2CB2010080B500AF0CF0B2FF1B
:101F600003001A00254B1A700CF0ACFF03001A0096
:101F7000234B1A70234B244A1A60244B244A1A60BC
:101F8000224B1B6874221A70224B00220821180071
:101F90000DF0BCFF1F4B1A78E1235B021900100003
:101FA0000EF0ECFA1B4B1B781B49002218000EF0B8
:101FB000AFFA04F0E9FA1949194B0022180004F0AD
:101FC0004DFAFFF753FD02F0D0FE002004F0C8FCEC
:101FD0000C4B1B680133134A1100180004F05EFA21
:101FE000114B1B78180003F06FFC104B1B78180086
:101FF00003F00AFBC046BD4680BDC0468588FF1F72
:102000008688FF1F7C88FF1FFC87FF1F8088FF1FBB
:102010007887FF1F5387FF1FF14B0000411B000013
:10202000C91B0000FFFF00005787FF1F5687FF1FD7
:1020300080B500AF6E4B1B78022B1FD16D4B1B7808
:10204000002B1BD06C4B1B78180003F0DDFA6B4B98
:102050001B78180003F038FC694B0A221A70694B90
:102060001A78674B5A70664B0021180004F080FC08
:10207000012002F095FE5F4B00221A705C4B1B782A
:10208000142B00D98AE09A005F4BD3181B689F4637
:102090005E4B1A785E4B1100180002F03BFE0020E8
:1020A00002F07EFE5B4B01221A70514B02221A7025
:1020B0007FE0594B00221A70584B00221A704C4B8B
:1020C00005221A7075E000F0B5F8031E00D167E034
:1020D000474B01221A70524B1B68802118000EF0EA
:1020E000E9FF5DE04F4B1B78002B0DD100F00AFD9E
:1020F000031E57D03E4B01221A70494B1B688021AA
:1021000018000EF0D7FF4DE000F08EFF031E49D0FF
:10211000374B01221A70424B1B68802118000EF0C9
:10212000C9FF3FE03F4B1B78002B0DD101F084FA33
:10213000031E39D02E4B01221A70394B1B688021A7
:1021400018000EF0B7FF2FE001F0CEFC031E2BD0DD
:10215000274B01221A70324B1B68802118000EF0A9
:10216000A9FF21E001F0ACFE031E1FD0204B01228D
:102170001A702B4B1B68802118000EF09BFF15E096
:1021800001F05CFF031E13D0194B01221A70244B7F
:102190001B68802118000EF08DFF09E0C04608E0A2
:1021A000C04606E0C04604E0C04602E0C04600E08B
:1021B000C0461D4B1A781B4B1B789A4215D01B4BFF
:1021C00000221A701A4B00221A70134B00221A7048
:1021D000124B00221A70134B1A78134B1A70104BC3
:1021E0001B68802118000EF065FFC046BD4680BD0B
:1021F0005D87FF1FCC86FF1F5687FF1F5787FF1F76
:102200006C87FF1F6987FF1F3C9801005387FF1FE2
:10221000649901005C87FF1F6187FF1F6287FF1FB2
:10222000BC86FF1F5487FF1F5587FF1F5F87FF1F57
:102230006087FF1F90B583B000AFFB1D00221A70AE
:10224000E04B1B78002B4BD0002002F045FCDE4B0E
:102250001B78180003F0D8F9DC4B1B78180003F04A
:1022600033FBDB4B0A221A70DA4B1A78D84B5A70C0
:10227000D74B0021180004F07BFBD74B1B78032BB6
:1022800002D1D64B05221A70D34B1B78180002F0EE
:1022900023FCD24B1B78022B03D1012002F080FDDE
:1022A00009E0002002F07CFDCD4B1B78CD490122D6
:1022B00018000EF0A7F9C94B1B78072B0DD1CA4B9C
:1022C00000221A70C94B1B6874221A70C74B196818
:1022D00000220023080003F0EDF8BA4B00221A7028
:1022E000BE4B1B78092B01D900F0DBFB9A00C04BD9
:1022F000D3181B689F46BF4B1B78002B01D100F001
:10230000D2FBBD4B1B780D2B01D000F0CCFBB34BA7
:1023100000221A70B74B00221A70B84B1B6880213C
:1023200018000EF0C7FE00F0BEFBAD4B1A78B44BA0
:102330001100180002F0EEFCA94B1A78B14B110005
:10234000180002F0E7FC002002F0C6FBC0469E4BDE
:102350001B78180003F058F9031EF8D1A04B187829
:102360009D4B1B781A00A84B9200D35801221900EC
:102370000EF048F9984B1B78012B0BD1984B18782D
:10238000A24B1B781A00A24B9200D35801221900CD
:102390000EF038F9904B1B78180002F09DFB904B23
:1023A0001B789C49012218000EF02CF9002002F045
:1023B000F7FC994B01221A70884B02221A7081E3B4
:1023C0008C4B1B78002B00D16FE38B4B1B78312B90
:1023D0000CD1814B00221A70804B00221A70874B5F
:1023E0001B68802118000EF065FEE6E0824B1B782A
:1023F000322B1DD1884B00221A70002002F06CFB9A
:10240000754B03221A70704B1B78180003F0FCF810
:10241000734B1B788149012218000EF0F3F86E4BC4
:102420001B78180002F058FB6C4B05221A70C4E0B0
:10243000714B1B78332B0DD1674B01221A70674B00
:1024400008221A70664B1B787549012218000EF09D
:10245000D9F8B2E0684B1B78342B11D15E4B1B7856
:10246000022B00D1A9E05C4B02221A705B4B0022C8
:102470001A70624B1B68802118000EF01BFE9CE056
:102480005D4B1B78352B26D1634B00221A70002040
:1024900002F022FB4C4B1B78180003F0B5F84E4BB2
:1024A00000221A704E4B1B785E49012218000EF074
:1024B000A9F84D4B00221A704C4B1B6874221A70FD
:1024C0004A4B196800220023080002F0F3FF434B37
:1024D00007221A7071E0484B1B78362B17D1002069
:1024E00002F0FAFA3C4B00221A703D4B1B784E4921
:1024F000012218000EF086F8384B03221A704B4B5D
:1025000018784B4A0023C8210CF0D9FD55E03A4B0E
:102510001B78372B1CD1002002F0DEFA2E4B002254
:102520001A70444B0B221A702D4B1B784249012222
:1025300018000EF067F8414B00221A70274B062254
:102540001A702E4B1B68802118000EF0B3FD34E08A
:10255000294B1B78382B19D1002002F0BDFA204BF3
:102560001B783749012218000EF04CF81A4B002254
:102570001A701A4B09221A702C4B18782C4A002317
:1025800064210CF09CFD03F099FA16E01A4B1B78BD
:10259000702B12D1002002F09FFA0B4B1B78180011
:1025A00003F032F8214B1B7818000CF0A1FD254BED
:1025B00000221A70FB1D01221A700E4B00221A70A5
:1025C00073E2C046CC86FF1F5687FF1F5787FF1F49
:1025D0006C87FF1F6987FF1F6887FF1F5E87FF1FCC
:1025E0005387FF1F146C0100C586FF1F8088FF1FE3
:1025F000909801005287FF1F5187FF1FBC86FF1F65
:10260000CC990100E4990100289B01005987FF1F24
:102610001C9B0100186C01005C87FF1F206C0100EF
:10262000546C0100A06C0100D46C01008688FF1F6F
:10263000E54C00005B87FF1F046D0100C686FF1F8D
:10264000346D01008488FF1FC34B1B78002B00D121
:102650002DE2C24B1B78322B03D1C14B02221A70E0
:102660000EE0BE4B1B78312B03D1BD4B01221A70FB
:1026700006E0BA4B1B78302B02D1B94B00221A70FE
:10268000B54B00221A70B74B00221A70B64B1B686C
:10269000802118000EF00EFD09E2B44B1B78002BD0
:1026A00003D1B34B1B78002B07D0B14B00221A701B
:1026B000AE4B00221A7002F075FAA74B1B78002B64
:1026C00000D1F6E1A54B1B78702B00D0F1E1A94BAE
:1026D00000221A70002002F0FFF9A74B1B781800A7
:1026E00002F092FFA54B1B7818000CF001FDA44BE3
:1026F00000221A70A34B1B78A349012218000DF089
:1027000081FF984B01221A70934B00221A709F4B45
:1027100001221A70CDE19E4B1B78002B3DD09D4BC2
:102720001B689B78022B2AD1964B1B789A49012271
:1027300018000DF067FFBB1D00221A7011E0914BCD
:102740001878944B1A68BB1D1B780833D318591D91
:10275000002301220DF093FFBB1D1A78BB1D01322F
:102760001A708C4B1B685B78BA1D12789A42E6D3BC
:10277000844B1B788949012218000DF043FF844BDC
:1027800000221A70834B1B6874221A70814B1968DF
:1027900000220023080002F08DFE6F4B1B78002BF7
:1027A00000D188E16D4B1B78702B00D083E102F0E3
:1027B000A1FF002002F090F9724B1B7872490122B0
:1027C00018000DF01FFF674B01221A70624B0022A8
:1027D0001A7070E16A4B1B78002B0ED0684B0022F8
:1027E0001A70664B18786E4A002364210CF067FC5F
:1027F000614B1B78180003F0B7F8574B1B78002B80
:1028000000D15AE1554B1B78702B00D055E15D4B40
:102810001B785D49012218000DF0F4FE514B012296
:102820001A704D4B00221A70554B00221A70534BF0
:102830001B7818000CF05CFC3FE1524B1B785949A7
:10284000012218000DF0DEFE4E4B1A784A4B1B7821
:10285000190010000DF0E0FF4A4B1B78524901228D
:1028600018000DF0CFFE444B1B781A004F4B9A5CBA
:102870007B1D1A707B1D1B787F2B0CD97B1D1B7851
:102880005B42DAB27B1D1A703E4B1B78484901222D
:1028900018000DF0B7FE3B4B1A787B1D1B785BB21E
:1028A000190010000DF0B8FF364B1B78414901228A
:1028B00018000DF0A7FE2B4B03221A7002E1304BDB
:1028C0001B78002B12D03C4B1B78002B0ED03A4BC0
:1028D00000221A702A4B00221A7003F0EFF8274BDF
:1028E00018782F4A002364210CF0E9FB1A4B1B785F
:1028F000002B00D1E3E0194B1B78702B00D0DEE0F9
:10290000204B1B782049012218000DF07BFE154B4F
:1029100001221A70104B00221A70194B00221A70F3
:10292000164B1B7818000CF0E3FBC8E0234B1B7818
:10293000002B00D188E0124B1B78002B00D183E0E4
:10294000104B1B781E49012218000DF05BFEBB1DC9
:102950000B221A7062E0C0465287FF1F5187FF1F8B
:102960005987FF1F5E87FF1FBC86FF1FC486FF1F9E
:10297000CA86FF1F6887FF1F5687FF1F8688FF1FB5
:102980008488FF1F5387FF1F646D01005C87FF1F52
:10299000C586FF1F8088FF1FA06D0100B06D01007C
:1029A000E54C0000B46D0100CC6D0100D086FF1F26
:1029B000D06D0100D46D0100C786FF1FC686FF1FC2
:1029C000DC6D0100BB1D1B78414AD25C7B1D1A7077
:1029D0007B1D1B787F2B0CD97B1D1B785B42DAB2E9
:1029E0007B1D1A703B4B1B783B49012218000DF0F0
:1029F00009FE384B1A787B1D1B785BB2190010005A
:102A00000DF00AFF334B1B783449012218000DF0FA
:102A1000F9FDBB1D1A78BB1D01321A70304B1B78B3
:102A2000BA1D12789A42CDD92A4B1B782D49012222
:102A300018000DF0E7FD2C4B00221A702B4B0B22D7
:102A40001A702B4B00221A702A4B1B78002B11D0C6
:102A5000294B1B78702B0DD11E4B1B782749012267
:102A600018000DF0CFFD264B01221A70214B0022D9
:102A70001A7026E01D4B1B780B2B22D11B4B1B78A9
:102A80003C1D180002F070FF030023703B1D1B78F3
:102A9000002B16D1154B1B780133DAB2134B1A7089
:102AA0000FE0C0460EE0C0460CE0C0460AE0C0465B
:102AB00008E0C04606E0C04604E0C04602E0C0466A
:102AC00000E0C046FB1D1B781800BD4603B090BD5A
:102AD000D086FF1F5387FF1FD06D0100E86D0100F6
:102AE000D088FF1FEC6D0100C686FF1F5B87FF1FAC
:102AF0008488FF1F5287FF1F5187FF1F646D0100ED
:102B00005E87FF1F90B587B000AF3B1DDF4A13CA39
:102B100013C31168196092889A801623FB1800224B
:102B20001A70DB4B1B78002B1DD002F0E3FDD94B54
:102B30001B78180002F068FDD74B1B78180002F0D4
:102B4000C3FED64B0A221A70D54B1A78D34B5A7053
:102B5000D24B0021180003F00BFF012002F020F9F6
:102B6000CB4B00221A70CF4B1B78052B00D92EE2DD
:102B70009A00CD4BD3181B689F46CC4B1A78CC4B90
:102B80001100180002F0C6F8C84B1A78C94B1100A2
:102B9000180002F0BFF8002002F002F9C64B012233
:102BA0001A70C04B02221A70C44B00221A60C44B28
:102BB00004221A6002F09EFD12E2C24B1B78002B29
:102BC00000D106E2C04B1B782F2B39D9BE4B1B78A6
:102BD000382B35D8BC4B1B78303B1A003B1D5200BC
:102BE000D25ABA4B1A80B44B00221A70B84B1B78D9
:102BF00011335A01FA2399001000FDF7D1FC0300AC
:102C00001A00AF4B1B68D218AD4B1A60A74B1B784C
:102C1000B049012218000DF0F5FCA44B1A78A84B1E
:102C20001B68190010000DF0F7FDA04B1B78AA4996
:102C3000012218000DF0E6FC9A4B03221A7007E0FF
:102C4000A14B1B78702B03D11623FB1801221A709D
:102C50009C4B00221A70BCE19A4B1B78002B00D1D0
:102C6000B9E1994B1B780D2B20D1944B1A68944BEA
:102C70001B689A4210D28D4B1B789849012218008C
:102C80000DF0C0FC874B00221A70954B1B68802109
:102C900018000EF00FFA36E0824B04221A70904BA7
:102CA0001B68802118000EF005FA2CE0864B1B787B
:102CB0002F2B1BD9844B1B78392B17D87F4B1A68C5
:102CC00013009B009B185B001A007F4B1B78D318E6
:102CD000303B1A00794B1A60744B1A787A4B1B7888
:102CE000303B190010000DF097FD0CE0764B1B787F
:102CF000702B08D16B4B00221A70794B1B68802116
:102D000018000EF0D7F96F4B00221A7063E1754B73
:102D10001B686F4A12781A70734B00221A806B4B33
:102D20001B881B0A9AB26F4B1B68D2B29A72674B10
:102D30001A886C4B1B68D2B2DA726B4B1B8801335A
:102D40001A12684B1B68D2B21A73674B1B88DAB22F
:102D5000644B1B680132D2B25A73624B1B680E334C
:102D600062490D2218000FF0B9F8594B1B78112B4E
:102D700024D91723FB1811221A7018E01720040019
:102D80003B181B780A211800FDF790FC0B00D9B204
:102D9000544B1A6820003B181B783031C9B2D31845
:102DA0000A1C9A723B181A783B1801321A70484B69
:102DB0001B781722BA1812789A42DFD34C4B0022A4
:102DC0001A70484B1B68180002F0C0F9464B1B886C
:102DD00001339AB2444B1A80344B1B784549012287
:102DE00018000DF00FFC314B1A78384B1B88190076
:102DF00010000DF011FD2D4B1B783F4901221800EA
:102E00000DF000FC274B05221A703C4B18782B4B19
:102E100019683B4A00230CF052F9E1E0344B1B786F
:102E2000002B00D19EE0374B1B78002B00D199E09E
:102E30002F4B00221A70334B00221A701B4B1B7849
:102E40003149012218000DF0DDFB184B1A78264B92
:102E50001B88190010000DF0DFFC234B1A881B4B58
:102E60001B889A4256D1114B1B7828490122180021
:102E70000DF0C8FB0D4B1B782549012218000DF001
:102E8000C1FB084B01221A706CE0C0463C6F010088
:102E9000CC86FF1F5687FF1F5787FF1F6C87FF1FBA
:102EA0006987FF1F5F87FF1FB89801005387FF1FC7
:102EB000CC9901001C9A01005C87FF1F8C88FF1FC2
:102EC000C480FF1F5287FF1F5187FF1F9088FF1F7D
:102ED0005887FF1FF46D0100286E0100446E010049
:102EE000BC86FF1F7C88FF1F9288FF1F686E010051
:102EF000C486FF1F786E0100986E01008688FF1F50
:102F0000E54C00008488FF1FA46E0100B06E010034
:102F1000C46E0100364B1B8801331A12354B1B68F7
:102F2000D2B21A73324B1B88DAB2324B1B680132B1
:102F3000D2B25A732F4B1B682F4A12781A702D4B3E
:102F40001B68180002F002F9294B1B8801339AB262
:102F5000274B1A80294B1878294B1968294A0023D6
:102F60000CF0ADF8284B1B78002B36D0274B1B7884
:102F7000202B32D1264B1B782649012218000DF058
:102F800041FB1E4B1B7818000CF0B2F8224B0022BC
:102F90001A7002F049FC214B00221A70204B0122CA
:102FA0001A701AE0184B1B78002B18D0174B1B789F
:102FB0000D2B14D11A4B00221A70134B00221A70D9
:102FC000184B1B68802118000EF074F807E0C0460B
:102FD00006E0C04604E0C04602E0C04600E0C0464D
:102FE0001623FB181B781800BD4607B090BDC046DD
:102FF0009288FF1F7C88FF1F5887FF1F8688FF1F4E
:103000008C88FF1FE54C00005287FF1F5187FF1F70
:103010005387FF1FFC6E01008488FF1FC486FF1FBB
:103020005F87FF1FBC86FF1F80B582B000AFBB1D4E
:1030300000221A707B1D00221A70444B1B78002B53
:103040001BD0434B1B78180002F0DEFA414B1B7873
:10305000180002F039FC404B0A221A703F4B1A78D4
:103060003D4B5A703C4B0021180003F081FC0120BD
:1030700001F096FE354B00221A70394B1B78012B5C
:1030800000D13FE202DC002B06D0B0E2022B2AD0B6
:10309000032B00D182E0AAE2324B01221A70324B9C
:1030A00000221A70314B1A78314B1100180001F0D0
:1030B00031FE2E4B1A782F4B1100180001F02AFE1A
:1030C000002001F06DFE2C4B00221A802B4B0022B9
:1030D0001A802B4B00221A802A4B00221A60204BA8
:1030E00002221A7083E2284B1B78002B00D17BE26E
:1030F000264B1B78202B1ED11C4B1B782449012208
:1031000018000DF07FFA234B00221A70224B1B6827
:1031100074221A70002002F0A1F91F4B19680022D6
:103120000023080002F0C6F90E4B00221A700C4B67
:1031300003221A7006E0154B1B78702B02D17B1D01
:1031400001221A70104B00221A704DE2CC86FF1F2C
:103150005687FF1F5787FF1F6C87FF1F6987FF1F59
:103160006087FF1F5C87FF1F9488FF1F5387FF1F27
:10317000CC9901004C9A01009888FF1F9C88FF1F82
:10318000A088FF1FA488FF1F5287FF1F5187FF1FC2
:10319000506F0100C586FF1F8088FF1FC14B1B7841
:1031A000002B00D101E1C04B1B689B78022B00D0A3
:1031B000D7E0BD4B1B6811331900BC4B0D22180022
:1031C00001F06CFD031E00D1CBE0B74B1B685B7BAD
:1031D0009BB21B0299B2B44B1B689B7B9AB2B24B59
:1031E0001B68DB7818008B1899B2B14B4200D152A2
:1031F000AD4B1B68DB7B9BB21B0299B2AA4B1B68D1
:103200001B7C9AB2A84B1B68DB7818008B1899B20C
:10321000A84B4200D152A44B1B68DB78A64A590048
:103220008A5A013291B2A44A5B0099529E4B1B68A4
:10323000DB781A00A14B9200D258A14B1B785BB2ED
:103240001900994B1B68DB78180051189B4B8200C2
:10325000D150954B1B68DB781A00984B9200D058E0
:10326000914B1B68DB781A00934B5200D35A19001C
:10327000FDF720FA030019008B4B1B68DB781A005E
:1032800049B2904B9954904B1B78904901221800F9
:103290000DF0B8F98C4B1878834B1B68DB781A005B
:1032A000854B5200D35A19000DF0B6FA864B1B78A5
:1032B0008749012218000DF0A5F9834B18787A4B45
:1032C0001B68DB781A007B4B5200D35A19000DF0B3
:1032D000A3FA7D4B1B787F49012218000DF092F96B
:1032E000774B1A78FB1D1A70FB1D1B787F2B0CD9AE
:1032F000FB1D1B785B42DAB2FB1D1A70724B1B7808
:103300007549012218000DF07DF96F4B1A78FB1DED
:103310001B785BB2190010000DF07EFA6A4B1B7827
:103320006E49012218000DF06DF95F4B1B68DB78C8
:103330001A00604B5200D25A5B4B1B68DB781900B5
:103340005B4B4900CB5A9A420BD1654B01221A7054
:10335000644B1B68802118000DF0ACFE624B01220B
:103360001A70504B00221A704F4B1B68DB781A0002
:10337000504B5200D25A4C4B1B68DB7819004C4B17
:103380004900CB5A9A4210D2474B1B68DB78180091
:1033900002F064F8444B1B6874221A70424B19689F
:1033A00000220023080002F085F8504B1B78002B08
:1033B00000D11BE14E4B1B78202B6FD1BB1D00228F
:1033C0001A70414B1B784B49012218000DF01AF975
:1033D0003D4B1A78BB1D1B78190010000DF01CFA2C
:1033E000394B1B783D49012218000DF00BF9BB1D2C
:1033F0001B78180002F032F802F07CF9324B1B788F
:103400003D49012218000DF0FDF8BB1D1B782D4A27
:10341000D356002B12DABB1D1B782A4AD356DBB2D7
:103420005B42DAB2BB1D1B7851B2264AD154264BFF
:103430001B782949012218000DF0E4F8224B187876
:10344000BB1D1B781F4AD35619000DF0E5F91E4B22
:103450001B782A49012218000DF0D4F81A4B1B786A
:103460002749012218000DF0CDF8BB1D1A78124B28
:103470005200D05ABB1D1A780D4B5200D35A190076
:1034800001F0E6FABB1DBA1D127801321A70BB1D9D
:103490001B78002B95D0144B01221A70134B00227D
:1034A0001A70A3E0C586FF1F8088FF1F686E0100A9
:1034B0009888FF1FA088FF1F9C88FF1FA488FF1FFC
:1034C000CB86FF1FA888FF1F5387FF1F6C6F01006B
:1034D000746F0100886F0100D06D0100146C010051
:1034E0009488FF1FBC86FF1F6087FF1F5287FF1F46
:1034F0005187FF1F9C6F0100B46F0100D06F010066
:10350000D86F01003D4B1B78012B52D13B4B002261
:103510001A70BB1D00221A70394B1B7839490122E1
:1035200018000DF06FF8BB1D1B78374AD356002BDF
:1035300012DABB1D1B78344AD356DBB25B42DAB2D7
:10354000BB1D1B7851B2304AD1542D4B1B782F49EB
:10355000012218000DF056F8294B1878BB1D1B7876
:10356000294AD35619000DF057F9254B1B782849E5
:10357000012218000DF046F8214B1B782549012245
:1035800018000DF03FF8BB1D1A78234B5200D05A9B
:10359000BB1D1A78214B5200D35A190001F058FA7A
:1035A000BB1DBA1D127801321A70BB1D1B78002B8F
:1035B000B2D01B4B1B78002B12D01A4B1B780D2B53
:1035C0000ED1002001F04AFF174B184A1A60184B21
:1035D00000221A70174B1B68802118000DF06AFD3D
:1035E0000F4B00221A7002E0C04600E0C0467B1D6F
:1035F0001B781800BD4602B080BDC0469488FF1FEE
:103600005387FF1FB46F0100A888FF1FD06D010012
:10361000D06F0100F46F01009C88FF1F9888FF1F86
:103620005287FF1F5187FF1F8088FF1F7887FF1F6A
:103630006087FF1FBC86FF1F80B582B000AFFB1DF7
:1036400000221A70E74B1B78002B1BD0E64B1B782F
:10365000180001F0D9FFE54B1B78180002F034F98F
:10366000E34B0A221A70E34B1A78E14B5A70E04B95
:103670000021180003F07CF9012001F091FBD94BE7
:1036800000221A70DC4B1B78052B00D9A8E19A00A8
:10369000DA4BD3181B689F46D94B00221A60D94BCE
:1036A00000221A80D84B00221A80D84B1A78D84BA7
:1036B0001100180001F02EFBD44B1A78D54B1100E5
:1036C000180001F027FB002001F06AFBD24B012219
:1036D0001A70C94B02221A70D5E1D04B1B78002B0F
:1036E00000D1C9E1CE4B1B78202B14D1CA4B00224C
:1036F0001A70C64B1B78CB49012218000CF082FFD0
:10370000BD4B03221A70C84B1878C84A0023C82141
:103710000BF0D5FC06E0C24B1B78702B02D1FB1DD1
:1037200001221A70BD4B00221A70A5E1C04B1B7814
:10373000002B00D1A2E1BE4B00221A70BD4B00222B
:103740001A70BD4B1B6810221A70BB4B1B680022FD
:103750009A72B94B1B680B33B8490F2218000EF050
:10376000BDFB01F0C7FFB64B1B7818000BF0C0FC87
:10377000B14B1B68180001F0E9FC9F4B04221A7042
:1037800081E1AC4B1B78002B00D179E1AC4B187870
:10379000AC4A002350210BF092FC01F041F9964B0A
:1037A00005221A706CE1A84B1B78002B00D169E14F
:1037B000A64B1B689B78022B00D077E0A34B1B68BD
:1037C0000E3319009D4B0F22180001F067FA031EFB
:1037D00062D09E4B1B685A7B7B1D1A707B1D00229A
:1037E0009A56874B1B68D218854B1A60854B1B88ED
:1037F00001339AB2834B1A80814B1A68814B1B8824
:1038000019001000FCF756FF03001A00BB1D1A70C8
:103810007E4B1B788E49012218000CF0F3FE7B1DB5
:103820001B787F2B27D97B1D1B785B42DAB27B1D6F
:103830001A70764B1B788749012218000CF0E2FEC3
:10384000854B00220021180011F0D2FD7B1D1B7852
:10385000180000F01FF903001A0064239B1ADBB262
:103860007D480122002111F0FBFC7B4B012200214D
:10387000180011F0BDFD654B1A787B1D1B785BB2FB
:10388000190010000CF0C8FF604B1B78734901222F
:1038900018000CF0B7FE19E0694B1878694A00234C
:1038A00050210BF00CFC01F0BBF80FE0564B1B88CD
:1038B00001339AB2544B1A80544B1B786849012249
:1038C00018000CF09FFE604B00221A70534B1B78BF
:1038D000002B62D0524B1B78202B5ED14B4B1B78B8
:1038E0006049012218000CF08DFE454B1A68454BCB
:1038F0001B8819001000FCF7DDFE03001A00BB1D39
:103900001A70424B1B785849012218000CF07AFEBD
:10391000BB1D1B787F2B0CD9BB1D1B785B42DAB219
:10392000BB1D1A70394B1B784A49012218000CF054
:1039300069FE364B1A78BB1D1B785BB2190010006C
:103940000CF06AFF314B1B784449012218000CF03F
:1039500059FE2E4B1B784549012218000CF052FEEF
:103960002A4B1A78284B1B88190010000CF054FFC2
:10397000264B1B783E49012218000CF043FE1E4BDB
:1039800001221A7001F0B6FE274B1B7818000BF0CD
:10399000AFFB274B00221A7009E0174B03221A7065
:1039A000214B1878214A0023C8210BF088FB1B4BC0
:1039B00000221A7066E0194B1B78002B0CD0184BB4
:1039C0001B780D2B08D10C4B00221A70294B1B6859
:1039D000802118000DF06EFB104B00221A7052E08F
:1039E000C04650E0CC86FF1F5687FF1F5787FF1F3A
:1039F0006C87FF1F6987FF1F6187FF1FD098010039
:103A0000AC88FF1FB088FF1FB288FF1F5387FF1FBE
:103A1000CC990100689A01005C87FF1F5287FF1F45
:103A20005187FF1F0C7001008688FF1FE54C0000C6
:103A30008488FF1FC486FF1F7C88FF1F2870010039
:103A40008588FF1F114C0000C586FF1F8088FF1F5F
:103A500038700100D06D010000A0034044700100E7
:103A60004C700100607001008070010094700100D2
:103A7000A8700100BC86FF1FC04604E0C04602E0FB
:103A8000C04600E0C046FB1D1B781800BD4602B0D2
:103A900080BDC04690B585B000AF0200FB1D1A7016
:103AA0000F217B1814221A700E243B195B221A7006
:103AB000FB1D1A787B181B78D31A64225A43100016
:103AC0003B191A787B181B78D31A1900FCF7F2FD02
:103AD00003001A000D217B181A707B181B78180040
:103AE000BD4605B090BD000080B582B000AFFB1DA3
:103AF00000221A70D14B1B78002B1BD0D04B1B78A7
:103B0000180001F081FDCF4B1B78180001F0DCFE9E
:103B1000CD4B0A221A70CD4B1A78CB4B5A70CA4B38
:103B20000021180002F024FF012001F039F9C34BF5
:103B300000221A70C64B1B78052B00D970E19A0041
:103B4000C44BD3181B689F46C34B00221A60C34B5B
:103B500000221A80C24B1A78C24B1100180001F0E3
:103B6000D9F8BF4B1A78C04B1100180001F0D2F8F9
:103B7000002001F015F9BD4B01221A70B44B02224E
:103B80001A7054E1BA4B1B78002B00D14AE1B94BB3
:103B90001B78202B0DD1B54B00221A70B04B1B782F
:103BA000B549012218000CF02DFDA94B03221A7013
:103BB00006E0B04B1B78702B02D1FB1D01221A705E
:103BC000AB4B00221A70AD4B1B68802118000DF022
:103BD00071FA27E100F024FF9D4B04221A7026E1C0
:103BE000A34B1B78002B4AD0A24B1B78202B46D12D
:103BF00001F080FD9A4B1B78A149012218000CF0BE
:103C000001FD954B1A68954B1B8819001000FCF7B5
:103C100051FD03001A00BB1D1A70914B1B78994986
:103C2000012218000CF0EEFCBB1D1B787F2B0CD979
:103C3000BB1D1B785B42DAB2BB1D1A70884B1B7828
:103C40009149012218000CF0DDFC854B1A78BB1D50
:103C50001B785BB2190010000CF0DEFD804B1B7866
:103C60008A49012218000CF0CDFC7D4B1B78884955
:103C7000012218000CF0C6FC754B01221A707C4B17
:103C800000221A70834B1B78002B1FD0824B1B68BD
:103C90009B78022B18D1804B1B680E3319007F4B89
:103CA0000F22180000F0FAFF031E0AD0794B002201
:103CB0001A707B4B18787B4A002304210BF0FFF924
:103CC00004E000F0ADFE01E000F0AAFE764B1B78A8
:103CD000002B00D1A8E0744B00221A70734B002215
:103CE0001A70734B1B68734A12789A72704B1B6878
:103CF0000B336A490F2218000EF0F0F86C4B1B686A
:103D000010221A706A4B1B68180001F01FFA504B02
:103D100005221A7088E0654B1B78002B00D185E0E6
:103D2000644B1A787B1D1A707B1D00229A564A4BF1
:103D30001B68D218484B1A60484B1B8801339AB253
:103D4000464B1A80444B1A68444B1B8819001000DC
:103D5000FCF7B0FC03001A00BB1D1A70404B1B7827
:103D60005549012218000CF04DFC7B1D1B787F2B60
:103D700027D97B1D1B785B42DAB27B1D1A70384B4A
:103D80001B784149012218000CF03CFC4B4B0022EF
:103D90000021180011F02CFB7B1D1B781800FFF789
:103DA00079FE03001A0064239B1ADBB24348012208
:103DB000002111F055FA414B01220021180011F0A9
:103DC00017FB274B1A787B1D1B785BB2190010007C
:103DD0000CF022FD224B1B782C49012218000CF01C
:103DE00011FC1B4B03221A70244B1B688021180006
:103DF0000DF060F91AE01E4B1B78002B0CD01D4B08
:103E00001B780D2B08D1124B00221A701B4B1B681C
:103E1000802118000DF04EF9154B00221A7006E0B3
:103E2000C04604E0C04602E0C04600E0C046FB1DBC
:103E30001B781800BD4602B080BDC046CC86FF1F6F
:103E40005687FF1F5787FF1F6C87FF1F6987FF1F5C
:103E50006287FF1FE8980100B488FF1FB888FF1F22
:103E60005387FF1FCC990100849A01005C87FF1FD4
:103E70005287FF1F5187FF1FE0700100BC86FF1FA4
:103E8000FC70010080700100D06D010044700100E1
:103E90001C710100C586FF1F8088FF1F287001006C
:103EA0008688FF1FE54C00008488FF1FC486FF1F23
:103EB0007C88FF1FCB86FF1F3870010000A00340E5
:103EC00080B582B000AFFB1D00221A70444B1B78F6
:103ED000002B1BD0434B1B78180001F095FB424B85
:103EE0001B78180001F0F0FC404B0A221A70404B7E
:103EF0001A783E4B5A703D4B0021180002F038FDF5
:103F0000012000F04DFF364B00221A70394B1B7810
:103F1000042B55D89A00384BD3181B689F46374B53
:103F20001A78374B1100180000F0F4FE334B1A7862
:103F3000344B1100180000F0EDFE002000F030FFBF
:103F4000314B01221A702B4B01221A7041E02F4B8A
:103F50001B78002B36D02E4B1B78702B02D1FB1D0B
:103F600001221A70294B00221A702BE000F060F831
:103F7000031E29D01F4B00221A70264B1B6880217C
:103F800018000DF097F81FE000F04CF8031E1DD04C
:103F9000184B00221A701F4B1B68802118000DF06F
:103FA00089F813E000F038F8031E11D0114B0022FD
:103FB0001A70184B1B68802118000DF07BF807E081
:103FC000C04606E0C04604E0C04602E0C04600E04D
:103FD000C046FB1D1B781800BD4602B080BDC04620
:103FE000CC86FF1F5687FF1F5787FF1F6C87FF1F59
:103FF0006987FF1F6387FF1F009901005387FF1F19
:10400000CC990100A09A01005C87FF1F5287FF1F17
:104010005187FF1FBC86FF1F80B500AF012318002A
:10402000BD4680BD80B500AF01231800BD4680BDF0
:1040300080B500AF01231800BD4680BD80B582B0B9
:1040400000AFFB1D00221A704C4B1B78002B1BD0BD
:104050004B4B1B78180001F0D7FA4A4B1B7818001D
:1040600001F032FC484B0A221A70484B1A78464B32
:104070005A70454B0021180002F07AFC012000F034
:104080008FFE3E4B00221A70414B1B78002B02D052
:10409000012B24D05AE0002000F01EFD3D4B1A7881
:1040A0003D4B1100180000F035FE3A4B1A783B4B9F
:1040B0001100180000F02EFE002000F071FE384BB9
:1040C00001221A70374B00221A70374B00221A70E7
:1040D000364B00221A702E4B01221A7047E0344BE7
:1040E0001B78002B40D0334B1B78312B0CD1284B45
:1040F00002221A70304B01221A70304B1B6880214B
:1041000018000CF0D7FF1DE02A4B1B78322B0CD186
:104110001F4B06221A70284B02221A70274B1B686D
:10412000802118000CF0C6FF0CE0224B1B78702B8E
:1041300008D1174B00221A701F4B00221A70FB1D6A
:1041400001221A701A4B00221A700DE01A4B1B78CC
:10415000012B02D100F0F4FA08E0174B1B78022B78
:1041600004D100F02DF801E0C04600E0C046FB1D80
:104170001B781800BD4602B080BDC046CC86FF1F2C
:104180005687FF1F5787FF1F6C87FF1F6987FF1F19
:104190006787FF1F5387FF1FCC990100CC9A01004E
:1041A0005C87FF1FC486FF1FC686FF1F8488FF1F12
:1041B0005287FF1F5187FF1FBA88FF1FBC86FF1F52
:1041C000F0B58BB000AF0823FB18DF4A43CA43C3E6
:1041D0001168196092889A801F2308229446BC4473
:1041E000634400221A70D94B1B78063B042B00D97C
:1041F00077E29A00D64BD3181B689F46D54B1A78A6
:10420000D54B1100180000F085FDD24B1A78D34B26
:104210001100180000F07EFD002000F0C1FDD04B21
:1042200000221A80CF4B00221A80CF4B00221A8026
:10423000CE4B1B7841211800FCF7B2F90300DAB22B
:104240001F2308218C46BC4463441A701EE01F20C3
:1042500008243B191B181B785BB2DBB2013BDAB2B6
:104260003B191B181A70C24B1B680A3319003B1903
:104270001B1800229A5613009B019B18CB18FB6158
:10428000BC49FB69412218000DF028FE1F230822BB
:104290009446BC4463441B785BB2002BD7DCB44B20
:1042A0001B680A331C00B14B1B7841211800FCF736
:1042B00077F90300DBB21A0013009B019B18E31887
:1042C000FB61AA4B1B7841211800FCF7EFF90B00AA
:1042D000DBB21A00A749FB6918000DF0FFFDA44BE3
:1042E0001B68A24A12781A70984B07221A70FFE1D5
:1042F000A14B1B78002B00D1F5E1A04B1B782F2B95
:1043000025D99E4B1B78382B21D89C4B1B78303BF2
:104310001A000823FB185200D25A924B1A808B4B7A
:1043200008221A708B4B1B789549012218000CF05B
:1043300069F9884B1B789349012218000CF062F947
:10434000914B1B68802118000CF0B4FE0CE08B4BE5
:104350001B78702B08D17D4B00221A708A4B1B688A
:10436000802118000CF0A6FE834B00221A70BAE1DF
:10437000814B1B78002B00D1B7E1804B1B780D2BB4
:104380001DD1774B1B88002B19D0704B09221A7056
:1043900005F008FD03000C001A0F2101796079680F
:1043A000114379601B013B60784B39687A6819606A
:1043B0005A60774B1B78180001F0D6FA2EE06F4B4D
:1043C0001B782F2B1DD96D4B1B78392B19D8644BBB
:1043D0001B881A1C9200D318DB189AB2674B1B7803
:1043E0009BB2D3189BB2303B9AB25D4B1A80594BAB
:1043F0001A78624B1B78303B190010000CF00CFA55
:104400000CE05E4B1B78702B08D1504B00221A70C9
:104410005D4B1B68802118000CF04CFE564B0022AF
:104420001A7062E15B4B1B78002B07D0594B0022BE
:104430001A704F4B1B68180000F088FE564B1B7813
:10444000002B00D10EE1544B00221A70464B1B8802
:1044500001339AB2444B1A803E4B1B784F490122DC
:1044600018000CF0CFF83B4B1A783F4B1B88190013
:1044700010000CF0D1F9374B1B7849490122180084
:104480000CF0C0F8424B1B781A00464B9A5C1E2178
:1044900008203B185B181A703B185B181B787F2BA1
:1044A00010D91E2108203B185B181B785B42DAB23A
:1044B0003B185B181A70274B1B783B4901221800E8
:1044C0000CF0A0F8234B1A781E2308218C46BC441C
:1044D00063441B785BB2190010000CF09DF91D4B72
:1044E0001B783249012218000CF08CF81E4B1A88F8
:1044F0001C4B1B889A4200D394E005F053FC020049
:104500000B0013001901214B1A685B681300CB1ACA
:104510003B62164B1B7811335B013A6AD31A3B623C
:104520003A6AFA2399001000FCF7C0F80B001A0051
:10453000F423FF339A423BD83A6AFA2399001000D9
:10454000FCF72EF803003BE03C6F01006787FF1F7C
:10455000149901005387FF1FCC990100EC9A0100C8
:10456000BC88FF1FBE88FF1FC088FF1F5887FF1F22
:104570007C88FF1FC880FF1F5287FF1F5187FF1FC6
:104580005471010098710100BC86FF1FC888FF1F8D
:104590005687FF1FC686FF1FC486FF1FC871010014
:1045A000DC710100D086FF1FD06D0100D06F0100CB
:1045B0003A6AFA2399001000FBF7F2FF0300013377
:1045C0003B624D4B1B881A003B6A93421ED94B4BF2
:1045D0001B784B49012218000CF014F8474B1B784C
:1045E0003A6A110018000CF017F9444B1B78454942
:1045F000012218000CF006F8434B0A221A70434BB4
:104600001B68802118000CF055FD71E0404B1878B4
:10461000394B1B881A003B6AD11A3E4A00230AF024
:104620004EFD1FE0354B1B783B49012218000BF073
:10463000E9FF324B1A78394B1B88190010000CF037
:10464000EBF82E4B1B783649012218000BF0DAFFED
:104650002A4B1B783349012218000BF0D3FF2A4B59
:104660000A221A70304B1B78002B12D02E4B0022DE
:104670001A7005F097FB02000B00110F1D010D438E
:1046800014012A4B1C605D60294B1B78180001F057
:104690006BF9284B1B78002B29D0274B1B78202B3C
:1046A00025D1164B1B782549012218000BF0AAFFD3
:1046B000154B0A221A701AE01E4B1B78002B0CD0E7
:1046C0001D4B1B780D2B08D10F4B00221A700F4B7E
:1046D0001B68802118000CF0EDFC164B00221A70AC
:1046E00006E0C04604E0C04602E0C04600E0C04626
:1046F000C046BD460BB0F0BDBC88FF1F5387FF1FEF
:10470000EC710100107201006787FF1FBC86FF1F5C
:104710008688FF1FE54C000050720100BE88FF1F15
:104720006C7201007C7201008488FF1FC888FF1F23
:104730005687FF1F5287FF1F5187FF1FFC6E010026
:1047400090B583B000AFFB1D00221A709D4B1B7803
:10475000032B00D17AE002DC022B07D02EE1042BE0
:1047600000D19BE0052B00D10BE127E1964B1B7894
:10477000180000F049FF954B1B789549012218005D
:104780000BF040FF914B1B789249012218000BF06F
:1047900039FF914B00221A708C4B1B788F490122F4
:1047A00018000BF02FFF8E4B1B7841211800FBF7F0
:1047B000F7FE0300DAB2FB1D1A7019E0FB1D1B782F
:1047C0005BB2DBB2013BDAB2FB1D1A70854B1B6892
:1047D0000A331900FB1D00229A5613009B019B18F7
:1047E000CB183B6080493B68412218000DF076FBF6
:1047F000FB1D1B785BB2002BE0DC7A4B1B680A3395
:104800001C00774B1B7841211800FBF7C9FE030001
:10481000DBB21A0013009B019B18E3183B60704B3E
:104820001B7841211800FBF741FF0B00DBB21A0097
:104830006D493B6818000DF051FB6A4B1B68684AD4
:1048400012781A705F4B03221A70B7E0674B1B781F
:10485000002B00D1AFE0664B1B78202B08D1594BC1
:1048600004221A70584B1B78180001F07DF811E0F3
:104870005F4B1B78702B0DD1534B1B78180000F049
:10488000C3FE504B00221A705A4B1B68802118003F
:104890000CF010FC554B00221A708CE0564B1B7824
:1048A000002B43D0544B00221A70484B1B785349BD
:1048B000012218000BF0A6FE434B1B781A00504B48
:1048C0009A5CBB1D1A70BB1D1B787F2B0CD9BB1DBE
:1048D0001B785B42DAB2BB1D1A703C4B1B7849490E
:1048E000012218000BF08EFE384B1A78BB1D1B7886
:1048F0005BB2190010000BF08FFF344B1B7842495C
:10490000012218000BF07EFEBB1D1B785BB23F4AF4
:104910001278934205DD334B1B68180000F016FC3B
:1049200004E0294B1B78180001F01EF8384B1B7867
:10493000002B13D0364B00221A70244B1B783549BC
:10494000012218000BF05EFE204B1B783249012239
:1049500018000BF057FE1B4B05221A70234B1B78D7
:10496000002B2AD0224B1B78202B26D1174B1B78EB
:104970002A49012218000BF045FE124B05221A703D
:104980001BE01A4B1B78002B11D0194B1B780D2BF9
:104990000DD10D4B1B78180000F036FE094B00229C
:1049A0001A70144B1B68802118000CF083FB0F4B0E
:1049B00000221A7002E0C04600E0C046C046BD4674
:1049C00003B090BD6787FF1F5687FF1F5387FF1FE8
:1049D000B0720100DC7201005C87FF1F146C0100E3
:1049E0005887FF1F7C88FF1FC880FF1F5287FF1F4B
:1049F0005187FF1FBC86FF1FC686FF1F047301007F
:104A0000D086FF1FD06D0100247301005A87FF1F5D
:104A1000C486FF1F2873010044730100FC6E01006F
:104A200080B500AF084B00221A70084B1B68742237
:104A30001A70064B196800220023080000F03AFDA6
:104A4000C046BD4680BDC046C586FF1F8088FF1F8B
:104A500080B582B000AF0200BB1D1A803B1D0A1C4E
:104A60001A80184B1B781849012218000BF0CAFD58
:104A7000144B1A78BB1D1B88190010000BF0CCFEDC
:104A8000104B1B781149012218000BF0BBFD0D4B98
:104A90001A783B1D1B88190010000BF0BDFE094B56
:104AA0001B780B49012218000BF0ACFD054B1B785D
:104AB0000849012218000BF0A5FDC046BD4602B012
:104AC00080BDC0465387FF1F707301007C730100D7
:104AD000847301009C73010080B582B000AF0200B6
:104AE000FB1D1A702B4B10221A70FB1D1B78002B1C
:104AF00003D1284B00225A703DE0FB1D1B78012B8F
:104B000017D1254B1B78012B03D1224B09225A7058
:104B100031E0214B1B78002B03D11E4B0A225A7027
:104B200029E01D4B1B78022B25D11A4B01225A700C
:104B300021E0FB1D1B78022B03D1164B04225A7077
:104B400019E0FB1D1B78042B03D1124B02225A7073
:104B500011E0FB1D1B78032B0DD1104B1B6841226C
:104B60001A700E4B1B680A330D49412218000DF0D4
:104B7000B5F900F017F8FB1D1B78032B04D0054B8B
:104B80000021180001F0F4FE00231800BD4602B019
:104B900080BDC0466C87FF1F5987FF1F7C88FF1FA1
:104BA000C880FF1F90B583B000AF00F0A3FD00F0F8
:104BB0003BFE0C4B1B68FC1D180000F0C7FA0300FD
:104BC0002370FB1D1B78002B08D0074B01221A70A5
:104BD000064B1B68802118000CF06CFAC046BD46DD
:104BE00003B090BD7C88FF1FCA86FF1FBC86FF1FD5
:104BF00080B582B000AF7860044B1B6801211800BB
:104C00000CF058FAC046BD4602B080BDBC86FF1FFE
:104C100080B500AF044B1B68402118000CF04AFA25
:104C2000C046BD4680BDC046BC86FF1F90B583B060
:104C300000AF154B00221A70144B1A78144B1B78D6
:104C40009A4212D8114B1B78FC1D180000F08CFE04
:104C500003002370FB1D1B78002B11D10B4B1B781D
:104C60000133DAB2094B1A700AE0074B01221A70BD
:104C7000084B1878084A9623590000230AF01FFAB7
:104C8000C046BD4603B090BDC686FF1F5B87FF1FB1
:104C9000D088FF1F8688FF1FE54C000080B584B0D8
:104CA00000AFF860B960FB1D1A70FB685A1CFA600F
:104CB0001A78BB68591CB9601B789A4208D1FB1D51
:104CC000FA1D1278013A1A70FB1D1B78002BECD1EB
:104CD000FB1D1B785A425341DBB21800BD4604B09D
:104CE00080BD000080B582B000AF7860074B012224
:104CF0001A70074B1A6880235B00190010000CF033
:104D0000D9F9C046BD4602B080BDC0468488FF1FA9
:104D1000BC86FF1F90B585B000AF78600A00FB1C11
:104D20001A700F23FB1800221A7011E00F243B1990
:104D30001B789B007A68D3181968FB1C1B7801222A
:104D400018000BF05FFC3B191A783B1901321A70FE
:104D50000F23FB181B789B007A68D3181B68002B65
:104D6000E4D1C046BD4605B090BD80B500AFC04699
:104D7000BD4680BD80B584B000AF3B1D31221A70A6
:104D80003B1D0021180001F0F3FD03001A00034B46
:104D90001A70C046BD4604B080BDC0466987FF1F7B
:104DA00080B584B000AF0200FB1D1A700E23FB1803
:104DB00050221A70FB1D1B78002B27D0544B1B78F8
:104DC0005449012218000BF01DFC0F23FB18002290
:104DD0001A700CE04E4B1B784F49012218000BF063
:104DE00011FC0F217B181A787B1801321A700F23DF
:104DF000FA180E23FB1812781B789A42EAD3444B18
:104E00001B784449012218000BF0FCFB404B1B7837
:104E10004249012218000BF0F5FB414B1B78002B97
:104E200007D13B4B1B783F49012218000BF0EAFBEE
:104E300006E0374B1B783C49012218000BF0E2FBDF
:104E4000334B1B783949012218000BF0DBFB304B48
:104E50001A78374B1B78190010000BF0DDFC2C4B37
:104E60001B783449012218000BF0CCFB284B1A7830
:104E7000314B1B78190010000BF0CEFC244B1B7833
:104E80002E49012218000BF0BDFB214B1A782C4B48
:104E90001B78190010000BF0BFFC1D4B1B78294933
:104EA000012218000BF0AEFB274B1B78002B06D01D
:104EB000174B1B782549012218000BF0A3FB144B5C
:104EC0001A78214B1B78190010000BF0A5FC104B31
:104ED0001B781F49012218000BF094FB0C4B1B7828
:104EE0001C49012218000BF08DFB094B1A781A4B54
:104EF0001B78190010000BF08FFC054B1B7817492D
:104F0000012218000BF07EFBC046BD4604B080BDF8
:104F10005387FF1F388501003C8501004085010053
:104F20005487FF1F488501004C8501005085010012
:104F30005687FF1F5C8501005787FF1F68850100AA
:104F40005887FF1F748501005A87FF1F8485010061
:104F5000888501008C8501006987FF1F9885010005
:104F600080B582B000AF0200FB1D1A70614B0122B8
:104F70001A70614B00221A70FB1D1B78613B162BC7
:104F800000D9A1E09A005D4BD3181B689F465C4B8B
:104F900000221A70AAE05A4B01221A70A6E0594B5F
:104FA0001A78594B1B789A4203D1564B0B221A7030
:104FB0009CE0544B1B780133DAB2524B1A7095E0E7
:104FC000504B1B780B2B04D14F4B1A784D4B1A705A
:104FD0008CE04C4B1B78013BDAB24A4B1A7085E0EF
:104FE0004A4B1B780133DAB2484B1A70474B1B7897
:104FF000202B00D86FE0454B00221A706BE0434B2A
:105000001B78002B03D1414B20221A706EE03F4BDE
:105010001B78013BDAB23D4B1A7067E03C4B1B78C2
:105020000133DAB23A4B1A70394B1B78742B54D9CE
:10503000374B11221A7050E0354B1B78013BDAB226
:10504000334B1A70324B1B78102B48D8304B7422DC
:105050001A7044E02F4B1B780133DAB22D4B1A70D3
:105060002C4B1B786E2B3CD92A4B00221A7038E04F
:10507000284B1B78013BDAB2264B1A70254B1B7864
:105080006E2B30D9234B6E221A702CE0224B1B78EA
:105090000133DAB2204B1A701F4B1B785BB2002B26
:1050A00023DA1D4B00221A701FE01B4B1B78002BCC
:1050B00003D1194B7F221A7018E0174B1B78013B64
:1050C000DAB2154B1A7011E00B4B01221A70094B22
:1050D00000221A700AE0C04608E0C04606E0C0465A
:1050E00004E0C04602E0C04600E0C046C046BD46FF
:1050F00002B080BDCC86FF1F5287FF1F389B010086
:105100005487FF1F5687FF1FD088FF1F5787FF1F39
:105110005887FF1F5A87FF1F6987FF1F04207146AA
:10512000084202D0EFF3098001E0EFF308808169C3
:105130000A88054B9A4200D0FEE7023181612021A6
:1051400001607047C0460000ABBE0000B0B584B03F
:1051500000AF744678600F23FB1807221A70BB4B10
:105160001B78002B01D106236CE17B68002B03D058
:105170007B681B78742B01D9042363E1B44B1B7843
:105180001900B44A0B00DB005B18DB009B5C002BB2
:1051900001D0012356E17B681B78293322000021CE
:1051A00018000CF093F90300BB60BB68002B01D121
:1051B000052347E1A64B1B781A00A649442013009B
:1051C000DB009B18DB00CB181B181B780133DCB20B
:1051D000A04944201300DB009B18DB00CB181B18F0
:1051E000221C1A709A4B1B7818009A4A402103001F
:1051F000DB001B18DB00D3185B1800221A70944BDD
:105200001B781800934A41210300DB001B18DB00C8
:10521000D3185B1800221A708D4B1A78BB685A702D
:10522000BB6800221A70BB680D221A75BA68012388
:105230005B42DC179360D460854B1B781800854A6D
:1052400029210300DB001B18DB00D3185B181B7837
:10525000002B2DD07B689A79DB791B0213439BB21C
:105260007D4A934224D07B681A795B791B021343F1
:105270009BB2794A93421BD07B681B7829335B0031
:105280001A00BB681A61724B1B781800714A2821FA
:105290000300DB001B18DB00D3185B181B78002B06
:1052A0000AD0BB681B6908331A00BB681A6103E0A7
:1052B000BB68012252421A617B681B780933DAB25B
:1052C000BB68DA75BB6818331A1DBB689A61BB6886
:1052D00098697B680133092219000CF0FFFDBB6857
:1052E0009B69093318007B680A3319007B681B78B7
:1052F0001A000CF0F3FD564B1B781800554A282174
:105300000300DB001B18DB00D3185B181B78002B95
:1053100003D0BB6801225A7502E0BB6804225A75AB
:105320004B4B1B7818004B4A29210300DB001B184C
:10533000DB00D3185B181B78002B1ED07B689A7992
:10534000DB791B0213439BB2434A934215D07B681F
:105350001A795B791B0213439BB23F4A93420CD0EC
:10536000BB689B691A78BB689B6920210A43D2B24B
:105370001A70BB6800229A7502E0BB6801229A7518
:10538000334B1B781C00BB689B699A1C3149442035
:105390002300DB001B19DB00CB181B181B781370D4
:1053A0002B4B1B7819002B4A0B00DB005B18DB0032
:1053B000D3182C33BA681A600BF044FF244B1B78C7
:1053C0001900244A0B00DB005B18DB000121995413
:1053D0000BF012FF0F257C19BB680021180003F0A9
:1053E00077FD030023707B191B78072B01D1002365
:1053F00028E0174B1B781900164A0B00DB005B18DE
:10540000DB00D3182C331B6818000CF0BBF8104BD2
:105410001B7819000F4A0B00DB005B18DB00D31868
:105420002C3300221A600BF00DFF094B1B7819007A
:10543000084A0B00DB005B18DB00002199540BF0DD
:10544000DBFE05231800BD4604B0B0BD2189FF1F57
:105450002089FF1FD888FF1FFFFF000080B582B0A2
:1054600000AF0200FB1D1A70104B1B78002B01D1FE
:10547000062316E0FB1D1B78002B01D0042310E04F
:105480000B4B1B78FA1D12789A4201D1002308E0D9
:105490000BF0D8FE064BFA1D12781A700BF0ACFE1A
:1054A00000231800BD4602B080BDC0462189FF1F01
:1054B0002089FF1FB0B58EB000AFF8603A607B6006
:1054C0003723FB1800221A70FB68002B03D0FB68FF
:1054D0001B78742B01D904238CE0484B1B78002BDC
:1054E00001D1062386E0464B1B781900454A0B0084
:1054F000DB005B18DB009B5C002B01D0012379E013
:105500003F4B1A781023FB185A703B687A68134394
:1055100014D010217B180A221A707A1801235B42DA
:10552000DC1713615461364B1A787B185A707B185C
:1055300012221A723A687B189A610BE010217B18CC
:105540000C221A707B180D221A727A18012300247B
:10555000136154613A687B6813435A1E9341DAB26F
:10556000274B1B7818001400264A42210300DB0059
:105570001B18DB00D3185B18221C1A70FB68012271
:105580009A701F4B1B7819001E4A0B00DB005B183A
:10559000DB00D3180433FA681A600BF053FE184B83
:1055A0001B781900174A0B00DB005B18DB00022197
:1055B00099540BF021FE37257C191023FB1800218C
:1055C000180003F0E1FC030023707B191B78072B04
:1055D00001D100230EE00BF035FE094B1B781900BA
:1055E000084A0B00DB005B18DB00002199540BF02C
:1055F00003FE05231800BD460EB0B0BD2189FF1F74
:105600002089FF1FD888FF1FB0B58CB000AFFB1DED
:105610001870224B1B78002B01D106233AE0204B57
:105620001B781C001F482300DB001B19DB001B5CE0
:10563000002B01D001232DE008243B190C20187009
:10564000174B18783B1958703B1900201872FB1D36
:105650001B78DBB2190000231A0020003B181961E7
:105660005A612F257C193B180021180003F08CFC8F
:10567000030023707B191B78072B08D0F12B02D075
:10568000052B02D005E0012304E0042302E00023FF
:1056900000E004231800BD460CB0B0BD2189FF1FF7
:1056A0002089FF1FD888FF1F90B58BB000AF0F4B2C
:1056B0001B78002B01D11B2314E03B000E221A7033
:1056C0000B4B1A783B005A703B0000221A723B00C9
:1056D00027243A19DA603B000021180003F054FC3B
:1056E0003B191B781800BD460BB090BD2189FF1FE8
:1056F0002089FF1FB0B58AB000AF484B1B78002B44
:1057000001D1062386E0464B1B781900454A0B0061
:10571000DB005B18DB009B5C022B0CD0404B1B7842
:105720001900404A0B00DB005B18DB009B5C002B80
:1057300001D006236EE03A4B1A783B005A700BF00A
:1057400081FD374B1B7818002723FA1835490300D1
:10575000DB001B18DB005B5C1370314B1B781900FE
:10576000304A0B00DB005B18DB00002199540BF082
:1057700043FD2B4B1B7818002A4A42210300DB0013
:105780001B18DB00D3185B181B78002B29D13B00BA
:105790000C221A703B000D221A723A0000230024DA
:1057A0001361546126257C193B000021180003F089
:1057B000EBFB030023707B191B78072B29D00BF020
:1057C00041FD174B1B781900164A0B00DB005B18D4
:1057D000DB0027217918097899540BF00DFD01237E
:1057E00018E03B000A221A703B0003221A720C4B8D
:1057F0001B7818000B4A42210300DB001B18DB005A
:10580000D3185B1800221A703B000021180003F027
:10581000BBFB00231800BD460AB0B0BD2189FF1FA5
:105820002089FF1FD888FF1F80B588B000AF244BA8
:105830001A783B005A703B000A221A703B00032280
:105840001A723B000021180003F09EFB1C4B1B78D2
:1058500019001C4A0B00DB005B18DB00D3182C334B
:105860001B68002B19D0164B1B781900154A0B002A
:10587000DB005B18DB00D3182C331B6818000BF01F
:1058800081FE0F4B1B7819000E4A0B00DB005B18E2
:10589000DB00D3182C3300221A600BF0D3FC084B2A
:1058A0001B781900074A0B00DB005B18DB000021A6
:1058B00099540BF0A1FCC046BD4608B080BDC0465F
:1058C0002089FF1FD888FF1FB0B58CB000AFFB1D2B
:1058D0001870224B1B78002B01D106233AE0204B95
:1058E0001B781C001F482300DB001B19DB001B5C1E
:1058F000002B01D001232DE0194B187808243B1907
:1059000058703B190C2018703B1902201872FB1DAF
:105910001B78DBB2190000231A0020003B18196124
:105920005A612F257C193B180021180003F02CFB2D
:10593000030023707B191B78072B08D0F12B02D0B2
:10594000052B02D005E0012304E0042302E000233C
:1059500000E004231800BD460CB0B0BD2189FF1F34
:105960002089FF1FD888FF1FB0B586B000AF7546ED
:105970000200FB1D1A701723FB1800221A704C4BF3
:105980001B78002B01D106238DE04A4B1B781900B0
:10599000494A0B00DB005B18DB009B5C002B01D04D
:1059A000012380E0FFF780FE03001A00FB1D1B7837
:1059B000934208D01723FC18FB1D1B781800FFF733
:1059C00023FE030023701723FB181B78002B03D042
:1059D0001723FB181B7866E02B001A0000212020FB
:1059E0000BF074FD03003B61324B1A783B695A702F
:1059F0003B6908221A703A6901235B42DC17936005
:105A0000D4602C4B1B7819002B4A0B00DB005B1871
:105A1000DB00D31830333A691A600BF013FC254BC6
:105A20001B781900244A0B00DB005B18DB00032104
:105A300099540BF0E1FB0F257C193B6900211800FC
:105A400003F0A2FA030023707B191B78072B29D0DF
:105A50000BF0F8FB174B1B781900174A0B00DB0003
:105A60005B18DB00002199540BF0C6FB114B1B782F
:105A70001900114A0B00DB005B18DB00D318303330
:105A80001B6818000BF07EFD0A4B1B7819000A4AB0
:105A90000B00DB005B18DB00D318303300221A60E8
:105AA000012300E000231800BD4606B0B0BDC0468B
:105AB0002189FF1F2089FF1FD888FF1F90B583B061
:105AC00000AF70463E4B1B78002B01D1062372E0DD
:105AD0003C4B1B7819003C4A0B00DB005B18DB00D9
:105AE0009B5C002B01D0012365E003001A0000211C
:105AF00020200BF0EBFC03007B60324B1A787B68B4
:105B00005A707B6806221A707B6801221A727B68C1
:105B100001225A722B4B1B7819002B4A0B00DB0019
:105B20005B18DB00D31830337A681A600BF08AFBFD
:105B3000244B1B781900244A0B00DB005B18DB00A8
:105B4000042199540BF058FBFC1C7B6800211800C1
:105B500003F01AFA03002370FB1C1B78072B29D0D3
:105B60000BF070FB174B1B781900174A0B00DB007A
:105B70005B18DB00002199540BF03EFB114B1B78A6
:105B80001900114A0B00DB005B18DB00D31830331F
:105B90001B6818000BF0F6FC0A4B1B7819000A4A28
:105BA0000B00DB005B18DB00D318303300221A60D7
:105BB000012300E000231800BD4603B090BDC0469D
:105BC0002189FF1F2089FF1FD888FF1F80B588B05B
:105BD00000AF3B4B1B78002B01D106236BE0394B08
:105BE0001A783B005A703B000A221A703B000322CD
:105BF0001A723B000021180003F0C6F90BF022FBDB
:105C0000304B1B781900304A0B00DB005B18DB00BF
:105C1000002199540BF0F0FA2A4B1B7819002A4AFC
:105C20000B00DB005B18DB00D3182C331B68002B48
:105C300019D0244B1B781900234A0B00DB005B189A
:105C4000DB00D3182C331B6818000BF09BFC1D4B9A
:105C50001B7819001C4A0B00DB005B18DB00D31813
:105C60002C3300221A60174B1B781900164A0B00C0
:105C7000DB005B18DB00D31830331B68002B19D016
:105C8000104B1B781900104A0B00DB005B18DB007F
:105C9000D31830331B6818000BF074FC094B1B78C9
:105CA0001900094A0B00DB005B18DB00D318303306
:105CB00000221A6000231800BD4608B080BDC0460F
:105CC0002189FF1F2089FF1FD888FF1FB0B586B02C
:105CD00000AF7546786039607B683B613B691B7833
:105CE000012B02D0022B56D065E1B8493A68130067
:105CF000DB009B18DB00CB182C331B68002B04D176
:105D00001723FB1807221A7055E1B0493A681300AF
:105D1000DB009B18DB00CB182C331B6818000BF042
:105D200031FCAA493A681300DB009B18DB00CB1852
:105D30002C3300221A602B001A0000210C200BF0DB
:105D4000C5FB0300BB60BB68002B04D11723FB1805
:105D500007221A7012E0BB6800221A70BB6800228A
:105D60001A719A493A681300DB009B18DB00CB18C4
:105D700034331B683968BA68100098470BF062FA30
:105D800092493A681300DB009B18DB0000225A544A
:105D90000BF032FA0FE13B68DAB23B6911001800F0
:105DA00000F0ACFD031E47D13B6918000BF0EAFB85
:105DB00086493A6842201300DB009B18DB00CB18B1
:105DC0001B181B78002B32D02B001A0000210C204E
:105DD0000BF07CFB0300BB60BB6801221A707B499F
:105DE0003A681300DB009B18DB00CB1804331A68F9
:105DF000BB689A60BB689B6804229A7073493A68D2
:105E00001300DB009B18DB00CB1834331B683968A8
:105E1000BA68100098470BF015FA6C493A681300FD
:105E2000DB009B18DB0000225A540BF0E5F9172326
