:1000000000800120E1040000F9540100C54C00000B
:1000100000000000000000000000000000000000E0
:1000200000000000000000000000000039A50000F2
:10003000000000000000000061A60000A9A600006A
:100040004105000045050000490500004D05000080
:1000500029050000290500002905000029050000E8
:100060005105000055050000590500002905000054
:100070005D05000029050000290500002905000094
:1000800029050000290500002905000029050000B8
:1000900029050000290500002905000029050000A8
:1000A0002905000029050000290500002905000098
:1000B0002905000061050000290500002905000050
:10040000FFFFFFFFFFFFFFFFFFFFFFFFFEFFFFFFFD
:1004200010B5064C2378002B07D1054B002B02D0CA
:10043000044800E000BF0123237010BDA086FF1F09
:100440000000000054A60100044B10B5002B03D09F
:100450000349044800E000BF10BDC0460000000092
:10046000A486FF1F54A60100164B002B00D1144B8D
:100470009D46402292029A1A924600218B460F46D0
:100480001348144A121A15F0C3FB0F4B002B00D06F
:1004900098470E4B002B00D0984700200021040005
:1004A0000D000D48002802D00C4815F0C9FC15F0CD
:1004B00047FB2000290010F09FFB15F031FBC046E0
:1004C0000000080000800120000000000000000083
:1004D000A086FF1F8CBFFF1F415E0100515E01001F
:1004E00072B60A480A4901600A6882F30888094816
:1004F00080470949094A0A4B9B1A03DD043BC85847
:10050000D050FBDC62B607488047000008ED00E0F1
:1005100000000000C55A010098A60100C080FF1F1E
:100520009C86FF1F690400000E4800470E480047E4
:100530000E4800470E4800470E4800470E48004747
:100540000E4800470E4800470E4800470E48004737
:100550000E4800470E4800470E4800470E48004727
:100560000E48004729050000F9540100C54C000061
:1005700039A5000061A60000A9A600002905000019
:100580002905000029050000290500002539010082
:100590004539010029320100893F01005D32010027
:1005A000002243088B4274D303098B425FD3030AB2
:1005B0008B4244D3030B8B4228D3030C8B420DD3C5
:1005C000FF22090212BA030C8B4202D31212090253
:1005D00065D0030B8B4219D300E0090AC30B8B4291
:1005E00001D3CB03C01A5241830B8B4201D38B033F
:1005F000C01A5241430B8B4201D34B03C01A5241E4
:10060000030B8B4201D30B03C01A5241C30A8B4226
:1006100001D3CB02C01A5241830A8B4201D38B0211
:10062000C01A5241430A8B4201D34B02C01A5241B5
:10063000030A8B4201D30B02C01A5241CDD2C30927
:100640008B4201D3CB01C01A524183098B4201D3A3
:100650008B01C01A524143098B4201D34B01C01A8E
:10066000524103098B4201D30B01C01A5241C30806
:100670008B4201D3CB00C01A524183088B4201D375
:100680008B00C01A524143088B4201D34B00C01A61
:100690005241411A00D20146524110467047FFE7CD
:1006A00001B5002000F0F0F802BDC0460029F7D0E7
:1006B00076E7704703460B437FD4002243088B4202
:1006C00074D303098B425FD3030A8B4244D3030BD9
:1006D0008B4228D3030C8B420DD3FF22090212BA9E
:1006E000030C8B4202D31212090265D0030B8B421A
:1006F00019D300E0090AC30B8B4201D3CB03C01A04
:100700005241830B8B4201D38B03C01A5241430BDE
:100710008B4201D34B03C01A5241030B8B4201D3CE
:100720000B03C01A5241C30A8B4201D3CB02C01A39
:100730005241830A8B4201D38B02C01A5241430AB1
:100740008B4201D34B02C01A5241030A8B4201D3A0
:100750000B02C01A5241CDD2C3098B4201D3CB0147
:10076000C01A524183098B4201D38B01C01A5241F6
:1007700043098B4201D34B01C01A524103098B42FA
:1007800001D30B01C01A5241C3088B4201D3CB00E5
:10079000C01A524183088B4201D38B00C01A5241C8
:1007A00043088B4201D34B00C01A5241411A00D278
:1007B00001465241104670475DE0CA0F00D04942E1
:1007C000031000D34042534000229C4603098B4251
:1007D0002DD3030A8B4212D3FC22890112BA030AD9
:1007E0008B420CD3890192118B4208D3890192115B
:1007F0008B4204D389013AD0921100E08909C309E0
:100800008B4201D3CB01C01A524183098B4201D3E1
:100810008B01C01A524143098B4201D34B01C01ACC
:10082000524103098B4201D30B01C01A5241C30844
:100830008B4201D3CB00C01A524183088B4201D3B3
:100840008B00C01A5241D9D243088B4201D34B00CE
:10085000C01A5241411A00D20146634652415B1010
:10086000104601D34042002B00D5494270476346F1
:100870005B1000D3404201B5002000F005F802BD36
:100880000029F8D016E770477047C0468446081C18
:100890006146FFE71FB500F079FC002801D4002174
:1008A000C8421FBD10B500F0FBFB4042013010BD37
:1008B00010B500F06BFC002801DB002010BD01200A
:1008C00010BDC04610B500F061FC002801DD00201D
:1008D00010BD012010BDC04610B500F009FC002875
:1008E00001DC002010BD012010BDC04610B500F095
:1008F000FFFB002801DA002010BD012010BDC0461A
:10090000002B11D1002A0FD1002900D1002802D0DC
:100910000021C943081C07B4024802A140180290F4
:1009200003BDC04665FFFFFF03B4684601B50298EA
:1009300000F048F8019B9E4602B00CBC7047C046D0
:10094000F0B5CE46474615042D0C2E0080B50704A1
:10095000140C3F0C9946030C7E435D43674363438D
:100960007F19340CE4199C46A54203D980235B020D
:100970009846C4444B4643435143250C36046544D2
:10098000360C2404A4195B19591820000CBC90469D
:100990009946F0BD9E2110B5C905041CFFF7A6FFBE
:1009A000002803D1201C00F037FF10BD9E21201C21
:1009B000C90500F06DFD00F02FFF80231B069C464B
:1009C0006044F2E7F0B54F464646D646C0B504004F
:1009D00082B00D00914698468B422FD82CD04146CC
:1009E000484600F0E1FF29000600200000F0DCFF8F
:1009F000331A9C46203B9A4600D576E04B46524639
:100A000093401F004B46624693401E00AF4228D8D9
:100A100025D05346A41BBD41002B00DA7BE0002209
:100A20000023009201930123524693400193012336
:100A300062469340009318E08242D0D900220023FE
:100A4000009201930A9B002B01D01C605D6000980E
:100A5000019902B01CBC90469946A246F0BDA34243
:100A6000D7D900220023009201936346002BE9D0DE
:100A7000FB079846414672080A437B0866460EE02B
:100A8000AB4201D1A2420CD8A41A9D4101202419E5
:100A90006D410021013E24184D41002E06D0AB428D
:100AA000EED9013E24196D41002EF8D1009801992C
:100AB000534600196941002B23DB2B005246D340DB
:100AC0002A006446E2401C0053461500002B2DDB33
:100AD00026005746BE40330026006746BE4032001F
:100AE000801A994100900191ACE7624620239B1A3D
:100AF0004A46DA406146130042468A4017001F43C7
:100B000080E7624620239B1A2A0066469A4023000B
:100B1000F3401343D4E76246202300219B1A0022AE
:100B2000009101920122DA40019280E7202362467F
:100B300026009B1ADE402F00B0466646B740464668
:100B40003B003343C8E7C046F8B54746CE464302AC
:100B50005B0A4400C20F9C464800DD004B02240E95
:100B60005B0A000E80B5984626009146C90FDB004F
:100B7000271A8A4229D0002F15DD00284AD1002BE0
:100B800000D095E0ED08FF2C00D188E06B025B0AF5
:100B9000E6B25B02F605580A3043D20710430CBC9C
:100BA00090469946F8BD002F00D087E0601CC0B287
:100BB000012800DCB6E0EE1A720100D5C5E0002E77
:100BC0003DD1002200260023E3E7002F00DC96E061
:100BD00000285DD0FF2C60D08022D20413431B2F4D
:100BE00000DDECE02022D21B18009340F8405A1E92
:100BF00093410343ED186B017BD50134FF2C00D1E9
:100C0000B7E0012207262A406B089A4D1D40154384
:100C10002E4029E0FF2CB5D08022D20413431B2F95
:100C200000DDB2E02022D21B19009340F9405A1E89
:100C300093410B43ED1A6B015BD5AD01AE0930005A
:100C400000F094FE05388640844265DC041B3300C6
:100C500020200134E340041BA640751EAE413343FF
:100C600007261D0000241E4001224B461A40002E7C
:100C700004D00F232B40042B00D004356B0100D48B
:100C800080E70134E6B2FF2C2FD1FF26002380E756
:100C9000002B52D1FF2C00D074E70A00ED08002D84
:100CA000F3D08023DB032B435B025B0AFF2670E754
:100CB000013F002FBED0FF2CB1D163E7002C47D0FD
:100CC000FF2869D08024E4047A4225431B2A00DDF2
:100CD000C5E02C002026D440B21A95406A1E9541EA
:100CE00025435D1B04008946A5E7AB015B0A50E77D
:100CF000002401224B461A406B07BAD142E7002F6D
:100D00003BD10134E0B201284ADDFF2CBDD00726DB
:100D1000ED186D082E40A7E70723574D241A3540DC
:100D20001E40A1E7002C1BD1002D6ED1002B00D15D
:100D30009AE00A001D003C0024E7013F002F00D18B
:100D400058E7FF2C00D04AE7A7E75E1B894676E705
:100D5000002D1CD10A00FF281FD004001D0011E740
:100D6000002D5DD1002B17D180230022DB03FF264D
:100D70000FE70A00FF2600230BE7002C21D1002DEE
:100D800066D1FF28E9D11D0087E7012352E77A1CCD
:100D9000A7D0FA43FF2899D10A001D00FF24F1E6ED
:100DA000002E21D1002D4FD0002B4CD0ED186B011F
:100DB0009ED5314B07362E4001241D4054E70123B8
:100DC00018E7FF28DFD08024E4047F4225431B2F4F
:100DD0004DDC2026F61B2C00B540FC406A1E9541D8
:100DE0002543ED18040006E7002DCCD0002B00D1E0
:100DF00053E780216046C903084203D040460842B9
:100E000000D11D000121114047E7002B00D1B9E6B8
:100E1000EA1A500125D507265D1B2E40894623E797
:100E2000FF24002B00D1ADE680226046D2031042A1
:100E300004D04046104201D11D00894601224B4694
:100E4000FF241A409EE62B00DD080A0000249DE6E0
:100E50007A1CC6D0FF43FF28B9D11D001DE701252C
:100E60003FE7151E00D044E70022002391E601254C
:100E7000B7E7C046FFFFFF7DFFFFFFFBF8B5574612
:100E80004E464546DE464402E0B546008846640AC2
:100E9000360EC70F002E63D0FF2E24D08023E4002F
:100EA000DB041C43002399469B467F3E4346424653
:100EB0005D02D20F5B006D0A1B0E9046924665D014
:100EC000FF2B55D080220021ED00D2047F3B15433B
:100ED000F61A43464A467B400F2A00D98DE06D48FA
:100EE000920082589746002C54D108239946063B1D
:100EF000FF269B46DAE70025534602291BD003292B
:100F000000D1BFE0012928D030007F30002820DD4B
:100F10006A0704D00F222A40042A00D004352A018F
:100F200003D530005C4A80301540FE2803DCAC015C
:100F3000640AC2B201E0FF2200246402D205600A02
:100F4000DB07104318433CBC90469946A246AB468B
:100F5000F8BD0122101A1B287CDD00220024ECE7DA
:100F6000002C1DD104239946033B00269B469DE798
:100F7000FF3E002D20D1022143464A467B400A43D2
:100F80000F2AD8D84548920082589746002D19D18B
:100F90000121F1E70C239946093BFF269B4685E793
:100FA000200000F0E3FC7626431F9C40002376429D
:100FB000361A99469B4679E74A4603231A439146D7
:100FC000032186E7280000F0D1FC431F36189D401E
:100FD000763600217DE780240023E403FF22ACE77E
:100FE00000258023DB031C4228D01D4226D12B4341
:100FF0005C02640A4346FF229FE762016C01A24241
:1010000024D21B210025013E012710006D00520053
:10101000002801DB944201D8121B3D43013900290D
:10102000F3D11400621E944125436DE7BA46594638
:1010300025005346022900D061E77CE78023DB03CB
:101040001C436402640A3B00FF2276E7121B1A214C
:101050000125D9E79E362A00B5402C00C240651E06
:10106000AC411443620704D00F222240042A00D06E
:101070000434620103D4A401640A00225DE7012262
:1010800000245AE78024E4032C436402640AFF220C
:1010900053E7C046108B0100FFFFFFF7508B0100A4
:1010A00070B542004E024C0045026D0A120EC30F8D
:1010B000760A240EC90FFF2A0FD0FF2C11D0012071
:1010C000A24200D070BDB542FCD18B420DD0002AA7
:1010D000F8D12800451EA841F4E70120002DF1D1E8
:1010E000EBE70120002EEDD1E9E70020EAE7C0465A
:1010F00070B54A004E02450244006D0A240EC30F2B
:10110000760A120EC90FFF2C15D0FF2A0ED0002C24
:1011100015D1002A01D1002E1CD0002D14D08B42F5
:1011200027D00220013B1840013870BD002EEED0C0
:1011300002204042F9E7002DFAD1FF2A0ED0002A02
:101140000ED1002EEDD00BE00123013999430800A8
:101150000130EAE70020002DE7D0E2E7002EE7D1DA
:101160008B42DED1944205DD0221581E0840013831
:10117000DBE70024A24204DCB542D2D80020B5420D
:10118000D3D2581E012398430130CEE730B5420038
:1011900044024D02C30F4800640A120E6D0A000E8D
:1011A000C90FFF2A12D0FF280CD0002A12D1002824
:1011B00019D1002D17D1002C2BD00220013B184053
:1011C000013826E0002DF0D0022022E0002CFBD1D7
:1011D000FF281FD000281FD1002D1DD10220013B68
:1011E0001840013815E0002C0ED08B42E5D10022CA
:1011F000904204DCAC42E0D80020AC4209D2581E38
:1012000001239843013004E0012301399943080088
:10121000013030BD002DD7D18B42CED18242E7DDE7
:101220000221581E08400138F3E7C046F0B54E468B
:1012300057464546DE46E0B543025B0A450083B0AB
:101240000F1C99462D0EC60F002D57D0FF2D24D010
:101250008020DB00C0041843002381469A469B4649
:101260007F3D7C027A00FB0F640A120E984623D061
:10127000FF2A4BD0E30080240020E4047F3A1C4383
:10128000AD186B1C47460193534677403A000F2B2D
:1012900048D87D499B00CB589F46002B00D085E065
:1012A00008339A46063B9B467C027A00FB0FFF25DB
:1012B000640A120E9846DBD1002C00D090E0524612
:1012C00001231A4392460120DBE74C46584617009B
:1012D000022824D0032800D1CFE0002200230128D7
:1012E0004DD15802D205400AFF071043384303B0DE
:1012F0003CBC90469946A246AB46F0BD002B5BD164
:1013000004239A46033B00259B46AAE7FF35002CA1
:1013100060D1524602231A4392460220B1E7FF22CF
:101320000023DEE74B461B0C9C464B462604360C3E
:10133000180461463300220C6446000C43434E43BC
:101340005043544380191A0C1218964203D9802135
:1013500049028C4664441B041B0C1004C018830112
:101360005E1EB341800E1843130C1B199B010343EF
:101370001C00230179D5012362081C401443019A03
:101380007F32002A4DDD630704D00F232340042B56
:1013900000D00434230103D53C4B019A1C40803219
:1013A000FE2ABCDCA3015B0AD2B29AE70C239A4660
:1013B000093BFF259B4654E7180000F0D7FA4A4640
:1013C000431F76259A4000236D4291462D1A9A4676
:1013D0009B4646E7524603231A439246032050E7B2
:1013E000200000F0C3FA431F2D1A9C40763D0020D8
:1013F00047E780230027DB03FF2272E7424666E7C8
:101400004C463200584662E780234A46DB031A42C4
:1014100022D01C4220D123435B025B0A4746FF22B5
:101420005FE701239A1A1B2A21DC23000199D3408C
:101430009E318C401A0023005C1EA34113435A07BF
:1014400004D00F221A40042A00D004335A0111D4C8
:101450009B015B0A002244E780234A46DB031343D7
:101460005B025B0A3700FF223BE7019587E700221A
:10147000002336E70122002333E78023DB032343E5
:101480005B025B0AFF222CE7908B0100FFFFFFF756
:10149000F8B54746CE464400C20F80B54702480221
:1014A000400A8446664648007F0A240EF60025005E
:1014B0009046FB00000EC90FB146FF2800D185E021
:1014C00001267140261A914257D0002E43DD002894
:1014D00000D07FE04946002900D1AAE0013E002E5D
:1014E00000D0F7E05B1A5A0100D48BE09B019C0905
:1014F000200000F03BFA05388440854200DDD3E04F
:10150000451B230020200135EB40451BAC40621EEB
:1015100094412343072400251C40012241460A40F0
:10152000002C04D00F211940042900D004335901A4
:1015300000D480E00135ECB2FF2D00D0A3E0FF2401
:1015400000235B02E405580AD207204310430CBC79
:1015500090469946F8BD002E74D1601CC0B2012897
:1015600000DCA7E04A469C1A620100D5B6E0002CD8
:10157000BED1002200240023E3E7002E00DC85E03A
:10158000002846D0FF2C49D080224846D204104380
:10159000814601221B2E09DC20204C46801B844002
:1015A0004A462000F240441EA04102439B185A01C3
:1015B00028D50135FF2D00D1A8E001220724944948
:1015C0001A405B080B4013431C40A6E7002E00D0D6
:1015D00078E775E7FF2C54D080224946D2041143A6
:1015E000894601221B2E09DC20214846891B8840A0
:1015F0004A460100F240481E81410A439B1A5A01A3
:1016000000D573E7012241460A40590700D089E717
:1016100011E04846002858D1FF2C0CD1DB08002BE4
:1016200000D18CE78020C00303435B025B0AFF24E8
:1016300087E7FF2C25D0DB08FF2DF0D05B025B0A8B
:10164000ECB27EE7002C4DD0FF2818D08024E404B3
:10165000724223431B2A00DDC4E01C002025D44035
:10166000AA1A93405A1E934123434A460500D31AAF
:10167000884638E7721CF8D0F243FF28EAD10A0006
:101680004B46FF25D7E79B015B0A5AE7002E41D165
:10169000651CE9B2012945DDFF2D00D14FE7072484
:1016A0004B445B081C4038E707225A4B2D1A234055
:1016B000144032E7002C1DD1002B7AD14B46002B71
:1016C00000D191E00A000025B5E7013E002E19D1B6
:1016D0004B446CE7FF2C84D1FF25ACE74A46884693
:1016E000D41A05E7002BC5D10A00FF28C8D0050091
:1016F0004B46A0E7002B49D14B46002B77D00A0080
:10170000FF2598E7FF2C00D043E787E70A00FF2476
:10171000002316E7002C15D1002B57D1FF28E6D166
:101720004B467BE7002C20D1002B57D0494600299F
:1017300053D04B445A0168D50724364A1C40012532
:101740001340EAE6FF28EBD08022D204764213430E
:101750001B2E53DC2025AD1B1A00AB40F2405C1E53
:10176000A34113434B44050021E7002BD8D0494641
:10177000002900D152E78021C9030F4200D14DE773
:101780006046084200D049E74B4647E74846FF25F8
:10179000002800D14FE78022D203174204D06046D0
:1017A000104201D14B46884601224146FF250A409E
:1017B00041E7484600281FD01A1A500120D54A4652
:1017C0000724D31A1C4088460025A6E6741CC9D0FD
:1017D000F643FF28BCD14B4620E799464B460025EF
:1017E000DB082BE7012340E700220023A9E6802342
:1017F0000022DB03FF24A4E600251CE70123B1E758
:10180000002AF1D013000025FCE60025FAE6C046C8
:10181000FFFFFF7DFFFFFFFB41024200C30F490AAC
:10182000120E00207E2A0DD99D2A0CD8802000049B
:101830000143952A0ADC9620821AD1404842002BA7
:1018400000D108007047034A9818FBE7963A914088
:10185000F4E7C046FFFFFF7F70B500283DD0C317F7
:10186000C5185D40C40F280000F080F89E22121AAF
:10187000962A07DCD2B2082833DD08388540680292
:10188000400A23E0992A0BDD052329001B1AD940C1
:1018900003001B339D402B005D1EAB4119430D001F
:1018A000052801DD431F9D402B000F490B406E07AB
:1018B00009D00F263540042D05D004335D0102D533
:1018C0009F220B40121A9B01580AD2B24002D20545
:1018D000400AE4071043204370BD0024002200208A
:1018E000F4E76802400AF1E7FFFFFFFB70B5041E52
:1018F00034D000F03BF89E22121A962A07DCD2B2AE
:1019000008282EDD083884406002400A21E0992A28
:1019100009DD030021001B3399404B1E994105232B
:101920001B1ADC400C43052801DD431F9C402300AB
:101930000D490B40650709D00F252C40042C05D01C
:1019400004335C0102D59F220B40121A9B01580AF6
:10195000D2B24002D205400A104370BD00220020DE
:10196000F7E76002400AF4E7FFFFFFFB1C210123B9
:101970001B04984201D3000C10391B0A984201D372
:10198000000A08391B09984201D30009043902A250
:10199000105C40187047C0460403020201010101B7
:1019A000000000000000000010B5002903D1FFF77F
:1019B000DDFF203002E0081CFFF7D8FF10BDC04655
:1019C000002803D00A4908600020704701207047B2
:1019D00010B5074C20680021064A0023FEF7B0FF2F
:1019E0000422D2430023FEF78BFF2260104610BD75
:1019F000C080FF1FC160A81080B582B000AF7860C2
:101A0000084A094BD358094A1A407B681906C02373
:101A10009B040B4003491343034A8B50C046BD4609
:101A200002B080BD0070044004100000FFFFFFFC06
:101A300080B584B000AF78600A00FB1C1A707B6828
:101A40001B68FB60FB6818229343FB60FB1C1B7840
:101A5000DB0018221340FA681343FB607B68FA68C6
:101A60001A60C046BD4604B080BD000080B500AF1E
:101A7000204B74221A70204B00221A701F4B0B222D
:101A80001A701F4B05221A701A4B14221A701D4B24
:101A900000221A701C4B00221A701C4B00221A7074
:101AA0001B4B00221A701B4B00221A701A4B00228B
:101AB0001A701A4B00221A70194B00221A70194B17
:101AC00000221A70184B00221A70184B00221A704C
:101AD000174B00221A70174B50221A70164B002217
:101AE0001A70164B00221A7002F0F6FFC046BD466F
:101AF00080BDC0465487FF1F5087FF1F5287FF1FBE
:101B00005387FF1F6487FF1F5887FF1F5987FF1FD9
:101B10005A87FF1F5B87FF1F5C87FF1F5D87FF1FC3
:101B20005E87FF1F5187FF1F6087FF1F6187FF1FB1
:101B30006287FF1F5687FF1FC586FF1F4E87FF1F47
:101B400080B582B000AF786039607B681B78032B6A
:101B500004D0062B22D0022B0ED026E07B685B79C6
:101B60001A007B681979154B9954154B1B6808218D
:101B700018000EF043FF18E0114B1B6810211800ED
:101B80000EF03CFF7B689B78002B03D10D4B0122AC
:101B90001A700AE00B4B00221A7006E0084B1B6813
:101BA000202118000EF02AFFC0467B6818000FF0B5
:101BB0008DF900231800BD4602B080BDCC86FF1F02
:101BC000BC86FF1FC486FF1F80B582B000AF78605F
:101BD00039607B681B78002B12D0012B00D01DE0F0
:101BE0007B689B689B78022B15D17B681A79104B18
:101BF0001A70104B1B68042118000EF0FFFE0AE05B
:101C00007B681B79002B08D10A4B1B680221180046
:101C10000EF0F4FE01E0C04600E0C0467B6818000C
:101C20000FF054F900231800BD4602B080BDC04635
:101C3000C786FF1FBC86FF1FB0B588B002AF7860B3
:101C4000314B1B78002B4CD113F046FB0FF080F882
:101C50000CF0AEFE0FF018FA06F01CFE0DF004FEBC
:101C600001200EF093FE0200284B1A6000F05AF893
:101C7000274B01221A70244B01221A7017217B185E
:101C800001221A7008243B1900221A703B197A1895
:101C900012785A703B1900229A7013F0A3FE13F0C9
:101CA00031FE0120FFF7A8FE0C257B19180012F069
:101CB00037FA7B19174A1900100012F0BBF90720F8
:101CC00010F056FF0300391912480193124B00938C
:101CD0000123012212F054FA0E4B01211800FFF7E4
:101CE000A7FE0E4B01221A700C4B1B78002B07D05D
:101CF00000F084F80A4B1B78002B00D0F8E7C046B0
:101D0000C046BD4606B0B0BD8388FF1FBC86FF1F1E
:101D10005987FF1F00A00340C05D00008488FF1F9B
:101D200028A5010080B500AF0CF0A4FE03001A0046
:101D3000254B1A700CF09EFE03001A00234B1A70FC
:101D4000234B244A1A60244B244A1A60224B1B68F6
:101D500074221A70224B0022082118000DF082FE16
:101D60001F4B1A78E1235B02190010000EF0AAF84D
:101D70001B4B1B781B49002218000EF06DF804F075
:101D8000D7F91949194B0022180004F03BF9FFF765
:101D90006DFE02F09CFE002004F0B6FB0C4B1B68AD
:101DA0000133134A1100180004F04CF9114B1B7851
:101DB000180003F05DFB104B1B78180003F0F8F9D6
:101DC000C046BD4680BDC0468188FF1F8288FF1F78
:101DD0007888FF1FF887FF1F7C88FF1F7487FF1F0D
:101DE0004F87FF1FC5490000411B0000C91B0000B1
:101DF000FFFF00005387FF1F5287FF1F80B500AF12
:101E0000704B1B78022B1CD16F4B1B78002B18D00A
:101E10006E4B1B78180003F0CBF96D4B1B78180044
:101E200003F026FB6B4B0A221A706B4B1A78694B36
:101E30005A70684B0021180004F06EFB624B0022C0
:101E40001A70604B1B78142B00D990E09A00634BFA
:101E5000D3181B689F46624B1A78624B110018001A
:101E600002F00AFE002002F04DFE5F4B01221A70C4
:101E70005E4B00221A705E4B00221A70514B0522F5
:101E80001A707FE0594B00221A70594B00221A70C9
:101E90004C4B05221A7075E000F0B6F8031E00D115
:101EA00067E0484B01221A70524B1B6880211800D2
:101EB0000EF0A4FD5DE0504B1B78002B0DD100F01F
:101EC0000BFD031E57D03F4B01221A70494B1B6874
:101ED000802118000EF092FD4DE000F08FFF031EF0
:101EE00049D0384B01221A70424B1B6880211800E0
:101EF0000EF084FD3FE0404B1B78002B0DD101F02C
:101F000085FA031E39D02F4B01221A70394B1B68FA
:101F1000802118000EF072FD2FE001F0CFFC031EAF
:101F20002BD0284B01221A70324B1B6880211800DD
:101F30000EF064FD21E001F0ADFE031E1FD0214B29
:101F400001221A702B4B1B68802118000EF056FDE1
:101F500015E001F05DFF031E13D01A4B01221A7029
:101F6000244B1B68802118000EF048FD09E0C04694
:101F700008E0C04606E0C04604E0C04602E0C046B5
:101F800000E0C0461D4B1A781B4B1B789A4215D0B7
:101F90001B4B00221A701B4B00221A70134B00229D
:101FA0001A70134B00221A70134B1A78134B1A70C5
:101FB000104B1B68802118000EF020FDC046BD4666
:101FC00080BDC0465987FF1FC886FF1F5287FF1F6D
:101FD0005387FF1F6887FF1F6587FF1FD08B010096
:101FE0004F87FF1FBC8C01005887FF1F5D87FF1FB5
:101FF0005E87FF1FBC86FF1F5087FF1F5187FF1F93
:102000005B87FF1F5C87FF1F90B583B000AFFB1D90
:1020100000221A70E04B1B78002B4BD0002002F0FE
:1020200045FCDE4B1B78180003F0C2F8DC4B1B7834
:10203000180003F01DFADB4B0A221A70DA4B1A78EB
:10204000D84B5A70D74B0021180004F065FAD74BD3
:102050001B78032B02D1D64B05221A70D34B1B7869
:10206000180002F023FCD24B1B78022B03D1012075
:1020700002F048FD09E0002002F044FDCD4B1B7842
:10208000CD49012218000DF061FFC94B1B78072BC9
:102090000DD1CA4B00221A70C94B1B6874221A70EA
:1020A000C74B196800220023080002F0D7FFBA4B83
:1020B00000221A70BE4B1B78092B01D900F0DBFB04
:1020C0009A00C04BD3181B689F46BF4B1B78002B50
:1020D00001D100F0D2FBBD4B1B780D2B01D000F0DD
:1020E000CCFBB34B00221A70B74B00221A70B84BCE
:1020F0001B68802118000EF081FC00F0BEFBAD4B88
:102100001A78B44B1100180002F0B6FCA94B1A78EB
:10211000B14B1100180002F0AFFC002002F0C6FB2A
:10212000C0469E4B1B78180003F042F8031EF8D1FE
:10213000A04B18789D4B1B781A00A84B9200D358DF
:10214000012219000DF002FF984B1B78012B0BD1D7
:10215000984B1878A24B1B781A00A24B9200D358C8
:10216000012219000DF0F2FE904B1B78180002F0CE
:102170009DFB904B1B789C49012218000DF0E6FE58
:10218000002002F0BFFC994B01221A70884B0222FA
:102190001A7081E38C4B1B78002B00D16FE38B4BC3
:1021A0001B78312B0CD1814B00221A70804B0022FE
:1021B0001A70874B1B68802118000EF01FFCE6E0A8
:1021C000824B1B78322B1DD1884B00221A700020C5
:1021D00002F06CFB754B03221A70704B1B781800D1
:1021E00002F0E6FF734B1B788149012218000DF0C5
:1021F000ADFE6E4B1B78180002F058FB6C4B0522AD
:102200001A70C4E0714B1B78332B0DD1674B012240
:102210001A70674B08221A70664B1B7875490122A9
:1022200018000DF093FEB2E0684B1B78342B11D1EF
:102230005E4B1B78022B00D1A9E05C4B02221A7086
:102240005B4B00221A70624B1B68802118000EF055
:10225000D5FB9CE05D4B1B78352B26D1634B0022D0
:102260001A70002002F022FB4C4B1B78180002F081
:102270009FFF4E4B00221A704E4B1B785E49012285
:1022800018000DF063FE4D4B00221A704C4B1B687A
:1022900074221A704A4B196800220023080002F0C9
:1022A000DDFE434B07221A7071E0484B1B78362B3A
:1022B00017D1002002F0FAFA3C4B00221A703D4B75
:1022C0001B784E49012218000DF040FE384B0322C6
:1022D0001A704B4B18784B4A0023C8210CF09AFC1B
:1022E00055E03A4B1B78372B1CD1002002F0DEFA68
:1022F0002E4B00221A70444B0B221A702D4B1B7868
:102300004249012218000DF021FE414B00221A70B3
:10231000274B06221A702E4B1B68802118000EF0E6
:102320006DFB34E0294B1B78382B19D1002002F0CB
:10233000BDFA204B1B783749012218000DF006FE2C
:102340001A4B00221A701A4B09221A702C4B18785B
:102350002C4A002364210CF05DFC03F083F916E0A5
:102360001A4B1B78702B12D1002002F09FFA0B4BF6
:102370001B78180002F01CFF214B1B7818000CF092
:1023800063FC254B00221A70FB1D01221A700E4BB4
:1023900000221A7073E2C046C886FF1F5287FF1FD3
:1023A0005387FF1F6887FF1F6587FF1F6487FF1F15
:1023B0005A87FF1F4F87FF1FA85F0100C186FF1FBD
:1023C0007C88FF1F248C01004E87FF1F4D87FF1F55
:1023D000BC86FF1F248D01003C8D0100808E010012
:1023E0005587FF1F748E0100AC5F01005887FF1FE7
:1023F000B45F0100E85F0100346001006860010023
:102400008288FF1F494A00005787FF1F986001001C
:10241000C286FF1FC86001008088FF1FC34B1B7866
:10242000002B00D12DE2C24B1B78322B03D1C14BC4
:1024300002221A700EE0BE4B1B78312B03D1BD4B2C
:1024400001221A7006E0BA4B1B78302B02D1B94B2F
:1024500000221A70B54B00221A70B74B00221A7076
:10246000B64B1B68802118000EF0C8FA09E2B44B85
:102470001B78002B03D1B34B1B78002B07D0B14B3B
:1024800000221A70AE4B00221A7002F075FAA74BA8
:102490001B78002B00D1F6E1A54B1B78702B00D0E8
:1024A000F1E1A94B00221A70002002F0FFF9A74BBE
:1024B0001B78180002F07CFEA54B1B7818000CF06E
:1024C000C3FBA44B00221A70A34B1B78A349012223
:1024D00018000DF03BFD984B01221A70934B00221F
:1024E0001A709F4B01221A70CDE19E4B1B78002B76
:1024F0003DD09D4B1B689B78022B2AD1964B1B78B5
:102500009A49012218000DF021FDBB1D00221A700E
:1025100011E0914B1878944B1A68BB1D1B78083357
:10252000D318591D002301220DF04DFDBB1D1A7853
:10253000BB1D01321A708C4B1B685B78BA1D127878
:102540009A42E6D3844B1B788949012218000DF08A
:10255000FDFC844B00221A70834B1B6874221A7096
:10256000814B196800220023080002F077FD6F4BB1
:102570001B78002B00D188E16D4B1B78702B00D0AD
:1025800083E102F08BFE002002F090F9724B1B7881
:102590007249012218000DF0D9FC674B01221A7014
:1025A000624B00221A7070E16A4B1B78002B0ED030
:1025B000684B00221A70664B18786E4A002364211B
:1025C0000CF028FB614B1B78180002F0A1FF574B61
:1025D0001B78002B00D15AE1554B1B78702B00D093
:1025E00055E15D4B1B785D49012218000DF0AEFCF2
:1025F000514B01221A704D4B00221A70554B00228C
:102600001A70534B1B7818000CF01EFB3FE1524B25
:102610001B785949012218000DF098FC4E4B1A788E
:102620004A4B1B78190010000DF09AFD4A4B1B789D
:102630005249012218000DF089FC444B1B781A0006
:102640004F4B9A5C7B1D1A707B1D1B787F2B0CD91E
:102650007B1D1B785B42DAB27B1D1A703E4B1B78E8
:102660004849012218000DF071FC3B4B1A787B1D84
:102670001B785BB2190010000DF072FD364B1B7811
:102680004149012218000DF061FC2B4B03221A7006
:1026900002E1304B1B78002B12D03C4B1B78002BF7
:1026A0000ED03A4B00221A702A4B00221A7002F008
:1026B000D9FF274B18782F4A002364210CF0AAFA7F
:1026C0001A4B1B78002B00D1E3E0194B1B78702BC1
:1026D00000D0DEE0204B1B782049012218000DF0CD
:1026E00035FC154B01221A70104B00221A70194B41
:1026F00000221A70164B1B7818000CF0A5FAC8E0DF
:10270000234B1B78002B00D188E0124B1B78002B49
:1027100000D183E0104B1B781E49012218000DF0F8
:1027200015FCBB1D0B221A7062E0C0464E87FF1FCE
:102730004D87FF1F5587FF1F5A87FF1FBC86FF1F4E
:10274000C086FF1FC686FF1F6487FF1F5287FF1FBB
:102750008288FF1F8088FF1F4F87FF1FF8600100DE
:102760005887FF1FC186FF1F7C88FF1F346101004F
:1027700044610100494A00004861010060610100B4
:10278000CC86FF1F6461010068610100C386FF1FE2
:10279000C286FF1F70610100BB1D1B78414AD25CDD
:1027A0007B1D1A707B1D1B787F2B0CD97B1D1B7822
:1027B0005B42DAB27B1D1A703B4B1B783B4901220E
:1027C00018000DF0C3FB384B1A787B1D1B785BB2E9
:1027D000190010000DF0C4FC334B1B783449012262
:1027E00018000DF0B3FBBB1D1A78BB1D01321A7027
:1027F000304B1B78BA1D12789A42CDD92A4B1B78E0
:102800002D49012218000DF0A1FB2C4B00221A705B
:102810002B4B0B221A702B4B00221A702A4B1B7861
:10282000002B11D0294B1B78702B0DD11E4B1B7820
:102830002749012218000DF089FB264B01221A704E
:10284000214B00221A7026E01D4B1B780B2B22D146
:102850001B4B1B783C1D180002F05AFE030023702E
:102860003B1D1B78002B16D1154B1B780133DAB2B8
:10287000134B1A700FE0C0460EE0C0460CE0C04695
:102880000AE0C04608E0C04606E0C04604E0C04694
:1028900002E0C04600E0C046FB1D1B781800BD46A4
:1028A00003B090BDCC86FF1F4F87FF1F64610100FE
:1028B0007C610100C888FF1F80610100C286FF1F84
:1028C0005787FF1F8088FF1F4E87FF1F4D87FF1F01
:1028D000F86001005A87FF1F90B587B000AF3B1D1D
:1028E000DF4A13CA13C31168196092889A801623AD
:1028F000FB1800221A70DB4B1B78002B1DD002F056
:10290000CDFCD94B1B78180002F052FCD74B1B783A
:10291000180002F0ADFDD64B0A221A70D54B1A787A
:10292000D34B5A70D24B0021180003F0F5FD012063
:1029300002F0E8F8CB4B00221A70CF4B1B78052B26
:1029400000D92EE29A00CD4BD3181B689F46CC4B82
:102950001A78CC4B1100180002F08EF8C84B1A7888
:10296000C94B1100180002F087F8002002F0CAF8E5
:10297000C64B01221A70C04B02221A70C44B0022AF
:102980001A60C44B04221A6002F088FC12E2C24BA7
:102990001B78002B00D106E2C04B1B782F2B39D9B6
:1029A000BE4B1B78382B35D8BC4B1B78303B1A00FC
:1029B0003B1D5200D25ABA4B1A80B44B00221A70F7
:1029C000B84B1B7811335A01FA2399001000FDF718
:1029D000E7FD03001A00AF4B1B68D218AD4B1A601D
:1029E000A74B1B78B049012218000DF0AFFAA44B99
:1029F0001A78A84B1B68190010000DF0B1FBA04B12
:102A00001B78AA49012218000DF0A0FA9A4B032264
:102A10001A7007E0A14B1B78702B03D11623FB180B
:102A200001221A709C4B00221A70BCE19A4B1B7851
:102A3000002B00D1B9E1994B1B780D2B20D1944B81
:102A40001A68944B1B689A4210D28D4B1B78984998
:102A5000012218000DF07AFA874B00221A70954B6C
:102A60001B68802118000DF0C9FF36E0824B04225C
:102A70001A70904B1B68802118000DF0BFFF2CE0EE
:102A8000864B1B782F2B1BD9844B1B78392B17D8DF
:102A90007F4B1A6813009B009B185B001A007F4B4A
:102AA0001B78D318303B1A00794B1A60744B1A7894
:102AB0007A4B1B78303B190010000DF051FB0CE0F5
:102AC000764B1B78702B08D16B4B00221A70794B18
:102AD0001B68802118000DF091FF6F4B00221A70C7
:102AE00063E1754B1B686F4A12781A70734B0022B2
:102AF0001A806B4B1B881B0A9AB26F4B1B68D2B2B1
:102B00009A72674B1A886C4B1B68D2B2DA726B4BA5
:102B10001B8801331A12684B1B68D2B21A73674BB9
:102B20001B88DAB2644B1B680132D2B25A73624B13
:102B30001B680E3362490D2218000EF099FB594BA9
:102B40001B78112B24D91723FB1811221A7018E0B7
:102B5000172004003B181B780A211800FDF7A6FD7A
:102B60000B00D9B2544B1A6820003B181B78303147
:102B7000C9B2D3180A1C9A723B181A783B18013252
:102B80001A70484B1B781722BA1812789A42DFD372
:102B90004C4B00221A70484B1B68180002F0AAF830
:102BA000464B1B8801339AB2444B1A80344B1B7836
:102BB0004549012218000DF0C9F9314B1A78384BFC
:102BC0001B88190010000DF0CBFA2D4B1B783F49E4
:102BD000012218000DF0BAF9274B05221A703C4B60
:102BE00018782B4B19683B4A00230CF013F8E1E0EE
:102BF000344B1B78002B00D19EE0374B1B78002B09
:102C000000D199E02F4B00221A70334B00221A702A
:102C10001B4B1B783149012218000DF097F9184B16
:102C20001A78264B1B88190010000DF099FA234BD7
:102C30001A881B4B1B889A4256D1114B1B78284986
:102C4000012218000DF082F90D4B1B782549012255
:102C500018000DF07BF9084B01221A706CE0C04699
:102C6000D0620100C886FF1F5287FF1F5387FF1FD6
:102C70006887FF1F6587FF1F5B87FF1F4C8C010064
:102C80004F87FF1F248D0100748D01005887FF1F9F
:102C90008888FF1FC480FF1F4E87FF1F4D87FF1FBF
:102CA0008C88FF1F5487FF1F88610100BC610100F1
:102CB000D8610100BC86FF1F7888FF1F8E88FF1F28
:102CC000FC610100C086FF1F0C6201002C62010044
:102CD0008288FF1F494A00008088FF1F3862010078
:102CE0004462010058620100364B1B8801331A12FE
:102CF000354B1B68D2B21A73324B1B88DAB2324B97
:102D00001B680132D2B25A732F4B1B682F4A1278BC
:102D10001A702D4B1B68180001F0ECFF294B1B8823
:102D200001339AB2274B1A80294B1878294B19681E
:102D3000294A00230BF06EFF284B1B78002B36D05E
:102D4000274B1B78202B32D1264B1B78264901229A
:102D500018000DF0FBF81E4B1B7818000BF074FFE9
:102D6000224B00221A7002F033FB214B00221A7012
:102D7000204B01221A701AE0184B1B78002B18D038
:102D8000174B1B780D2B14D11A4B00221A70134BC2
:102D900000221A70184B1B68802118000DF02EFEBF
:102DA00007E0C04606E0C04604E0C04602E0C04678
:102DB00000E0C0461623FB181B781800BD4607B07C
:102DC00090BDC0468E88FF1F7888FF1F5487FF1F65
:102DD0008288FF1F8888FF1F494A00004E87FF1F17
:102DE0004D87FF1F4F87FF1F906201008088FF1FE4
:102DF000C086FF1F5B87FF1FBC86FF1F80B582B0A8
:102E000000AFBB1D00221A707B1D00221A70444BBC
:102E10001B78002B1BD0434B1B78180002F0C8F91D
:102E2000414B1B78180002F023FB404B0A221A701A
:102E30003F4B1A783D4B5A703C4B0021180003F071
:102E40006BFB012001F05EFE354B00221A70394BFE
:102E50001B78012B00D13FE202DC002B06D0B0E250
:102E6000022B2AD0032B00D182E0AAE2324B0122AE
:102E70001A70324B00221A70314B1A78314B110004
:102E8000180001F0F9FD2E4B1A782F4B1100180095
:102E900001F0F2FD002001F035FE2C4B00221A80DB
:102EA0002B4B00221A802B4B00221A802A4B002227
:102EB0001A60204B02221A7083E2284B1B78002BE9
:102EC00000D17BE2264B1B78202B1ED11C4B1B789C
:102ED0002449012218000DF039F8234B00221A7002
:102EE000224B1B6874221A70002002F08BF81F4BD3
:102EF000196800220023080002F0B0F80E4B0022EF
:102F00001A700C4B03221A7006E0154B1B78702BBD
:102F100002D17B1D01221A70104B00221A704DE263
:102F2000C886FF1F5287FF1F5387FF1F6887FF1F39
:102F30006587FF1F5C87FF1F5887FF1F9088FF1F53
:102F40004F87FF1F248D0100A48D01009488FF1F6F
:102F50009888FF1F9C88FF1FA088FF1F4E87FF1FB8
:102F60004D87FF1FE4620100C186FF1F7C88FF1FA1
:102F7000C14B1B78002B00D101E1C04B1B689B7833
:102F8000022B00D0D7E0BD4B1B6811331900BC4B9E
:102F90000D22180001F034FD031E00D1CBE0B74B29
:102FA0001B685B7B9BB21B0299B2B44B1B689B7B7B
:102FB0009AB2B24B1B68DB7818008B1899B2B14BF0
:102FC0004200D152AD4B1B68DB7B9BB21B0299B216
:102FD000AA4B1B681B7C9AB2A84B1B68DB781800B5
:102FE0008B1899B2A84B4200D152A44B1B68DB78D6
:102FF000A64A59008A5A013291B2A44A5B009952FA
:103000009E4B1B68DB781A00A14B9200D258A14B53
:103010001B785BB21900994B1B68DB7818005118BC
:103020009B4B8200D150954B1B68DB781A00984B64
:103030009200D058914B1B68DB781A00934B5200DA
:10304000D35A1900FDF736FB030019008B4B1B68A0
:10305000DB781A0049B2904B9954904B1B789049F9
:10306000012218000CF072FF8C4B1878834B1B6800
:10307000DB781A00854B5200D35A19000DF070F816
:10308000864B1B788749012218000CF05FFF834BA9
:1030900018787A4B1B68DB781A007B4B5200D35AA6
:1030A00019000DF05DF87D4B1B787F490122180057
:1030B0000CF04CFF774B1A78FB1D1A70FB1D1B7828
:1030C0007F2B0CD9FB1D1B785B42DAB2FB1D1A70FB
:1030D000724B1B787549012218000CF037FF6F4BBB
:1030E0001A78FB1D1B785BB2190010000DF038F840
:1030F0006A4B1B786E49012218000CF027FF5F4BCA
:103100001B68DB781A00604B5200D25A5B4B1B687D
:10311000DB7819005B4B4900CB5A9A420BD1654BC7
:1031200001221A70644B1B68802118000DF066FCA8
:10313000624B01221A70504B00221A704F4B1B68D1
:10314000DB781A00504B5200D25A4C4B1B68DB788C
:1031500019004C4B4900CB5A9A4210D2474B1B687E
:10316000DB78180001F04EFF444B1B6874221A7084
:10317000424B196800220023080001F06FFF504BFA
:103180001B78002B00D11BE14E4B1B78202B6FD1FD
:10319000BB1D00221A70414B1B784B4901221800BD
:1031A0000CF0D4FE3D4B1A78BB1D1B7819001000A3
:1031B0000CF0D6FF394B1B783D49012218000CF06A
:1031C000C5FEBB1D1B78180001F01CFF02F066F85D
:1031D000324B1B783D49012218000CF0B7FEBB1D95
:1031E0001B782D4AD356002B12DABB1D1B782A4AB6
:1031F000D356DBB25B42DAB2BB1D1B7851B2264A12
:10320000D154264B1B782949012218000CF09EFE50
:10321000224B1878BB1D1B781F4AD35619000CF09F
:103220009FFF1E4B1B782A49012218000CF08EFECE
:103230001A4B1B782749012218000CF087FEBB1D92
:103240001A78124B5200D05ABB1D1A780D4B5200FF
:10325000D35A190001F0E6FABB1DBA1D12780132EB
:103260001A70BB1D1B78002B95D0144B01221A70CD
:10327000134B00221A70A3E0C186FF1F7C88FF1F3A
:10328000FC6101009488FF1F9C88FF1F9888FF1F26
:10329000A088FF1FC786FF1FA488FF1F4F87FF1F3F
:1032A00000630100086301001C6301006461010008
:1032B000A85F01009088FF1FBC86FF1F5C87FF1F6F
:1032C0004E87FF1F4D87FF1F3063010048630100D9
:1032D000646301006C6301003D4B1B78012B52D1EC
:1032E0003B4B00221A70BB1D00221A70394B1B7811
:1032F0003949012218000CF029FEBB1D1B78374A02
:10330000D356002B12DABB1D1B78344AD356DBB2DE
:103310005B42DAB2BB1D1B7851B2304AD1542D4BFF
:103320001B782F49012218000CF010FE294B187849
:10333000BB1D1B78294AD35619000CF011FF254BF1
:103340001B782849012218000CF000FE214B1B7845
:103350002549012218000CF0F9FDBB1D1A78234BFA
:103360005200D05ABB1D1A78214B5200D35A190073
:1033700001F058FABB1DBA1D127801321A70BB1D3C
:103380001B78002BB2D01B4B1B78002B12D01A4B92
:103390001B780D2B0ED1002001F034FE174B184A7C
:1033A0001A60184B00221A70174B1B6880211800F6
:1033B0000DF024FB0F4B00221A7002E0C04600E023
:1033C000C0467B1D1B781800BD4602B080BDC046BC
:1033D0009088FF1F4F87FF1F48630100A488FF1FCD
:1033E0006461010064630100886301009888FF1F25
:1033F0009488FF1F4E87FF1F4D87FF1F7C88FF1F8C
:103400007487FF1F5C87FF1FBC86FF1F80B582B0DB
:1034100000AFFB1D00221A70E74B1B78002B1BD05E
:10342000E64B1B78180001F0C3FEE54B1B78180033
:1034300002F01EF8E34B0A221A70E34B1A78E14BB4
:103440005A70E04B0021180003F066F8012001F0EB
:1034500059FBD94B00221A70DC4B1B78052B00D985
:10346000A8E19A00DA4BD3181B689F46D94B00227B
:103470001A60D94B00221A80D84B00221A80D84BF0
:103480001A78D84B1100180001F0F6FAD44B1A78CC
:10349000D54B1100180001F0EFFA002001F032FBCB
:1034A000D24B01221A70C94B02221A70D5E1D04BBF
:1034B0001B78002B00D1C9E1CE4B1B78202B14D1F7
:1034C000CA4B00221A70C64B1B78CB490122180048
:1034D0000CF03CFDBD4B03221A70C84B1878C84A4B
:1034E0000023C8210BF096FB06E0C24B1B78702B23
:1034F00002D1FB1D01221A70BD4B00221A70A5E1FA
:10350000C04B1B78002B00D1A2E1BE4B00221A70E9
:10351000BD4B00221A70BD4B1B6810221A70BB4BAA
:103520001B6800229A72B94B1B680B33B8490F22F3
:1035300018000DF09DFE01F0B1FEB64B1B7818008F
:103540000BF082FBB14B1B68180001F0D3FB9F4BC3
:1035500004221A7081E1AC4B1B78002B00D179E179
:10356000AC4B1878AC4A002350210BF053FB01F010
:1035700041F9964B05221A706CE1A84B1B78002B81
:1035800000D169E1A64B1B689B78022B00D077E045
:10359000A34B1B680E3319009D4B0F22180001F03E
:1035A0002FFA031E62D09E4B1B685A7B7B1D1A703C
:1035B0007B1D00229A56874B1B68D218854B1A60D8
:1035C000854B1B8801339AB2834B1A80814B1A6852
:1035D000814B1B8819001000FDF76CF803001A00DE
:1035E000BB1D1A707E4B1B788E49012218000CF00F
:1035F000ADFC7B1D1B787F2B27D97B1D1B785B4285
:10360000DAB27B1D1A70764B1B78874901221800AD
:103610000CF09CFC854B00220021180011F0B2F840
:103620007B1D1B78180000F01FF903001A006423AB
:103630009B1ADBB27D480122002110F0DBFF7B4B9F
:1036400001220021180011F09DF8654B1A787B1DAE
:103650001B785BB2190010000CF082FD604B1B78E8
:103660007349012218000CF071FC19E0694B1878BD
:10367000694A002350210BF0CDFA01F0BBF80FE0AE
:10368000564B1B8801339AB2544B1A80544B1B780B
:103690006849012218000CF059FC604B00221A7096
:1036A000534B1B78002B62D0524B1B78202B5ED1E2
:1036B0004B4B1B786049012218000CF047FC454B2E
:1036C0001A68454B1B8819001000FCF7F3FF030034
:1036D0001A00BB1D1A70424B1B7858490122180072
:1036E0000CF034FCBB1D1B787F2B0CD9BB1D1B7849
:1036F0005B42DAB2BB1D1A70394B1B784A49012272
:1037000018000CF023FC364B1A78BB1D1B785BB2FB
:10371000190010000CF024FD314B1B7844490122A4
:1037200018000CF013FC2E4B1B78454901221800A1
:103730000CF00CFC2A4B1A78284B1B88190010003F
:103740000CF00EFD264B1B783E49012218000CF0B0
:10375000FDFB1E4B01221A7001F0A0FD274B1B78C8
:1037600018000BF071FA274B00221A7009E0174B72
:1037700003221A70214B1878214A0023C8210BF02C
:1037800049FA1B4B00221A7066E0194B1B78002B7C
:103790000CD0184B1B780D2B08D10C4B00221A7043
:1037A000294B1B68802118000DF028F9104B0022CE
:1037B0001A7052E0C04650E0C886FF1F5287FF1FB4
:1037C0005387FF1F6887FF1F6587FF1F5D87FF1FE8
:1037D000648C0100A888FF1FAC88FF1FAE88FF1F04
:1037E0004F87FF1F248D0100C08D01005887FF1FE8
:1037F0004E87FF1F4D87FF1FA06301008288FF1FB8
:10380000494A00008088FF1FC086FF1F7888FF1F7D
:10381000BC6301008188FF1FE5490000C186FF1FCE
:103820007C88FF1FCC6301006461010000A003409D
:10383000D8630100E0630100F46301001464010037
:10384000286401003C640100BC86FF1FC04604E000
:10385000C04602E0C04600E0C046FB1D1B781800D1
:10386000BD4602B080BDC04690B585B000AF020035
:10387000FB1D1A700F217B1814221A700E243B199D
:103880005B221A70FB1D1A787B181B78D31A6422EE
:103890005A4310003B191A787B181B78D31A190069
:1038A000FCF708FF03001A000D217B181A707B1823
:1038B0001B781800BD4605B090BD000080B582B0F1
:1038C00000AFFB1D00221A70D14B1B78002B1BD0C0
:1038D000D04B1B78180001F06BFCCF4B1B78180005
:1038E00001F0C6FDCD4B0A221A70CD4B1A78CB4B96
:1038F0005A70CA4B0021180002F00EFE012001F0A0
:1039000001F9C34B00221A70C64B1B78052B00D956
:1039100070E19A00C44BD3181B689F46C34B00222A
:103920001A60C34B00221A80C24B1A78C24B110096
:10393000180001F0A1F8BF4B1A78C04B1100180015
:1039400001F09AF8002001F0DDF8BD4B01221A7059
:10395000B44B02221A7054E1BA4B1B78002B00D1F1
:103960004AE1B94B1B78202B0DD1B54B00221A70C0
:10397000B04B1B78B549012218000CF0E7FAA94BAF
:1039800003221A7006E0B04B1B78702B02D1FB1D8E
:1039900001221A70AB4B00221A70AD4B1B688021BC
:1039A00018000DF02BF827E100F024FF9D4B0422B6
:1039B0001A7026E1A34B1B78002B4AD0A24B1B7830
:1039C000202B46D101F06AFC9A4B1B78A1490122B9
:1039D00018000CF0BBFA954B1A68954B1B88190020
:1039E0001000FCF767FE03001A00BB1D1A70914B14
:1039F0001B789949012218000CF0A8FABB1D1B780E
:103A00007F2B0CD9BB1D1B785B42DAB2BB1D1A7031
:103A1000884B1B789149012218000CF097FA854BCE
:103A20001A78BB1D1B785BB2190010000CF098FBD4
:103A3000804B1B788A49012218000CF087FA7D4BD5
:103A40001B788849012218000CF080FA754B01227E
:103A50001A707C4B00221A70834B1B78002B1FD0EE
:103A6000824B1B689B78022B18D1804B1B680E334E
:103A700019007F4B0F22180000F0C2FF031E0AD06E
:103A8000794B00221A707B4B18787B4A0023042163
:103A90000BF0C0F804E000F0ADFE01E000F0AAFE7B
:103AA000764B1B78002B00D1A8E0744B00221A70D3
:103AB000734B00221A70734B1B68734A12789A7208
:103AC000704B1B680B336A490F2218000DF0D0FBB6
:103AD0006C4B1B6810221A706A4B1B68180001F0AF
:103AE00009F9504B05221A7088E0654B1B78002BB2
:103AF00000D185E0644B1A787B1D1A707B1D002273
:103B00009A564A4B1B68D218484B1A60484B1B8880
:103B100001339AB2464B1A80444B1A68444B1B88B7
:103B200019001000FCF7C6FD03001A00BB1D1A7037
:103B3000404B1B785549012218000CF007FA7B1DF9
:103B40001B787F2B27D97B1D1B785B42DAB27B1D4C
:103B50001A70384B1B784149012218000CF0F6F915
:103B60004B4B00220021180010F00CFE7B1D1B782F
:103B70001800FFF779FE03001A0064239B1ADBB2DA
:103B800043480122002110F035FD414B0122002164
:103B9000180010F0F7FD274B1A787B1D1B785BB2DD
:103BA000190010000CF0DCFA224B1B782C49012282
:103BB00018000CF0CBF91B4B03221A70244B1B6826
:103BC000802118000CF01AFF1AE01E4B1B78002B06
:103BD0000CD01D4B1B780D2B08D1124B00221A70F4
:103BE0001B4B1B68802118000CF008FF154B0022AE
:103BF0001A7006E0C04604E0C04602E0C04600E09D
:103C0000C046FB1D1B781800BD4602B080BDC046F3
:103C1000C886FF1F5287FF1F5387FF1F6887FF1F3C
:103C20006587FF1F5E87FF1F7C8C0100B088FF1F28
:103C3000B488FF1F4F87FF1F248D0100DC8D01001A
:103C40005887FF1F4E87FF1F4D87FF1F74640100B9
:103C5000BC86FF1F906401001464010064610100D0
:103C6000D8630100B0640100C186FF1F7C88FF1F7C
:103C7000BC6301008288FF1F494A00008088FF1F43
:103C8000C086FF1F7888FF1FC786FF1FCC63010017
:103C900000A0034080B582B000AFFB1D00221A7067
:103CA000444B1B78002B1BD0434B1B78180001F0B2
:103CB0007FFA424B1B78180001F0DAFB404B0A22D6
:103CC0001A70404B1A783E4B5A703D4B0021180039
:103CD00002F022FC012000F015FF364B00221A7082
:103CE000394B1B78042B55D89A00384BD3181B68D6
:103CF0009F46374B1A78374B1100180000F0BCFE76
:103D0000334B1A78344B1100180000F0B5FE002038
:103D100000F0F8FE314B01221A702B4B01221A7071
:103D200041E02F4B1B78002B36D02E4B1B78702B8D
:103D300002D1FB1D01221A70294B00221A702BE0C0
:103D400000F060F8031E29D01F4B00221A70264B8A
:103D50001B68802118000CF051FE1FE000F04CF8A9
:103D6000031E1DD0184B00221A701F4B1B688021A8
:103D700018000CF043FE13E000F038F8031E11D0D9
:103D8000114B00221A70184B1B68802118000CF090
:103D900035FE07E0C04606E0C04604E0C04602E04B
:103DA000C04600E0C046FB1D1B781800BD4602B0AF
:103DB00080BDC046C886FF1F5287FF1F5387FF1F65
:103DC0006887FF1F6587FF1F5F87FF1F948C0100B7
:103DD0004F87FF1F248D0100F88D01005887FF1FBA
:103DE0004E87FF1F4D87FF1FBC86FF1F80B500AFAA
:103DF00001231800BD4680BD80B500AF0123180027
:103E0000BD4680BD80B500AF01231800BD4680BD12
:103E100080B582B000AFFB1D00221A704C4B1B789E
:103E2000002B1BD04B4B1B78180001F0C1F94A4BFB
:103E30001B78180001F01CFB484B0A221A70484BF3
:103E40001A78464B5A70454B0021180002F064FB6B
:103E5000012000F057FE3E4B00221A70414B1B78A8
:103E6000002B02D0012B24D05AE0002000F01EFDD0
:103E70003D4B1A783D4B1100180000F0FDFD3A4B08
:103E80001A783B4B1100180000F0F6FD002000F0FE
:103E900039FE384B01221A70374B00221A70374B0B
:103EA00000221A70364B00221A702E4B01221A7013
:103EB00047E0344B1B78002B40D0334B1B78312B21
:103EC0000CD1284B02221A70304B01221A70304B51
:103ED0001B68802118000CF091FD1DE02A4B1B7817
:103EE000322B0CD11F4B06221A70284B02221A705B
:103EF000274B1B68802118000CF080FD0CE0224B42
:103F00001B78702B08D1174B00221A701F4B002210
:103F10001A70FB1D01221A701A4B00221A700DE054
:103F20001A4B1B78012B02D100F0F4FA08E0174B72
:103F30001B78022B04D100F02DF801E0C04600E010
:103F4000C046FB1D1B781800BD4602B080BDC046B0
:103F5000C886FF1F5287FF1F5387FF1F6887FF1FF9
:103F60006587FF1F6387FF1F4F87FF1F248D010099
:103F7000248E01005887FF1FC086FF1FC286FF1FC7
:103F80008088FF1F4E87FF1F4D87FF1FB688FF1FCA
:103F9000BC86FF1FF0B58BB000AF0823FB18DF4ACB
:103FA00043CA43C31168196092889A801F2308226C
:103FB0009446BC44634400221A70D94B1B78063BDC
:103FC000042B00D977E29A00D64BD3181B689F4682
:103FD000D54B1A78D54B1100180000F04DFDD24B8F
:103FE0001A78D34B1100180000F046FD002000F0B5
:103FF00089FDD04B00221A80CF4B00221A80CF4B74
:1040000000221A80CE4B1B7841211800FCF7C8FA19
:104010000300DAB21F2308218C46BC4463441A70A3
:104020001EE01F2008243B191B181B785BB2DBB273
:10403000013BDAB23B191B181A70C24B1B680A33DA
:1040400019003B191B1800229A5613009B019B185C
:10405000CB18FB61BC49FB69412218000DF008F93F
:104060001F2308229446BC4463441B785BB2002B98
:10407000D7DCB44B1B680A331C00B14B1B784121C1
:104080001800FCF78DFA0300DBB21A0013009B0145
:104090009B18E318FB61AA4B1B7841211800FCF721
:1040A00005FB0B00DBB21A00A749FB6918000DF0F5
:1040B000DFF8A44B1B68A24A12781A70984B0722AB
:1040C0001A70FFE1A14B1B78002B00D1F5E1A04B4A
:1040D0001B782F2B25D99E4B1B78382B21D89C4B36
:1040E0001B78303B1A000823FB185200D25A924B1F
:1040F0001A808B4B08221A708B4B1B789549012232
:1041000018000BF023FF884B1B78934901221800FD
:104110000BF01CFF914B1B68802118000CF06EFC0B
:104120000CE08B4B1B78702B08D17D4B00221A7052
:104130008A4B1B68802118000CF060FC834B002226
:104140001A70BAE1814B1B78002B00D1B7E1804B8C
:104150001B780D2B1DD1774B1B88002B19D0704B72
:1041600009221A7005F0F2FB03000C001A0F21015E
:1041700079607968114379601B013B60784B39683D
:104180007A6819605A60774B1B78180001F0C0F903
:104190002EE06F4B1B782F2B1DD96D4B1B78392BC5
:1041A00019D8644B1B881A1C9200D318DB189AB2DA
:1041B000674B1B789BB2D3189BB2303B9AB25D4BD6
:1041C0001A80594B1A78624B1B78303B190010004B
:1041D0000BF0C6FF0CE05E4B1B78702B08D1504BE8
:1041E00000221A705D4B1B68802118000CF006FC41
:1041F000564B00221A7062E15B4B1B78002B07D0F4
:10420000594B00221A704F4B1B68180000F072FDCA
:10421000564B1B78002B00D10EE1544B00221A7034
:10422000464B1B8801339AB2444B1A803E4B1B7895
:104230004F49012218000BF089FE3B4B1A783F4B87
:104240001B88190010000BF08BFF374B1B78494976
:10425000012218000BF07AFE424B1B781A00464BE5
:104260009A5C1E2108203B185B181A703B185B18DB
:104270001B787F2B10D91E2108203B185B181B7858
:104280005B42DAB23B185B181A70274B1B783B492C
:10429000012218000BF05AFE234B1A781E23082126
:1042A0008C46BC4463441B785BB2190010000BF0D1
:1042B00057FF1D4B1B783249012218000BF046FEB8
:1042C0001E4B1A881C4B1B889A4200D394E005F0C1
:1042D0003DFB02000B0013001901214B1A685B68BB
:1042E0001300CB1A3B62164B1B7811335B013A6A01
:1042F000D31A3B623A6AFA2399001000FCF7D6F908
:104300000B001A00F423FF339A423BD83A6AFA238F
:1043100099001000FCF744F903003BE0D062010073
:104320006387FF1FA88C01004F87FF1F248D0100AA
:10433000448E0100B888FF1FBA88FF1FBC88FF1F8A
:104340005487FF1F7888FF1FC880FF1F4E87FF1FFD
:104350004D87FF1FE86401002C650100BC86FF1F2C
:10436000C088FF1F5287FF1FC286FF1FC086FF1F26
:104370005C65010070650100CC86FF1F646101006F
:10438000646301003A6AFA2399001000FCF708F907
:10439000030001333B624D4B1B881A003B6A93427A
:1043A0001ED94B4B1B784B49012218000BF0CEFD58
:1043B000474B1B783A6A110018000BF0D1FE444BB2
:1043C0001B784549012218000BF0C0FD434B0A221F
:1043D0001A70434B1B68802118000CF00FFB71E032
:1043E000404B1878394B1B881A003B6AD11A3E4A59
:1043F00000230AF00FFC1FE0354B1B783B490122DC
:1044000018000BF0A3FD324B1A78394B1B881900AA
:1044100010000BF0A5FE2E4B1B7836490122180028
:104420000BF094FD2A4B1B783349012218000BF046
:104430008DFD2A4B0A221A70304B1B78002B12D0AC
:104440002E4B00221A7005F081FA02000B00110FAA
:104450001D010D4314012A4B1C605D60294B1B7824
:10446000180001F055F8284B1B78002B29D0274B5A
:104470001B78202B25D1164B1B78254901221800CB
:104480000BF064FD154B0A221A701AE01E4B1B78C4
:10449000002B0CD01D4B1B780D2B08D10F4B00228D
:1044A0001A700F4B1B68802118000CF0A7FA164BEE
:1044B00000221A7006E0C04604E0C04602E0C04692
:1044C00000E0C046C046BD460BB0F0BDB888FF1F37
:1044D0004F87FF1F80650100A46501006387FF1FF0
:1044E000BC86FF1F8288FF1F494A0000E465010067
:1044F000BA88FF1F00660100106601008088FF1F58
:10450000C088FF1F5287FF1F4E87FF1F4D87FF1F69
:104510009062010090B583B000AFFB1D00221A70BD
:104520009D4B1B78032B00D17AE002DC022B07D0D5
:104530002EE1042B00D19BE0052B00D10BE127E1FC
:10454000964B1B78180000F033FE954B1B7895496D
:10455000012218000BF0FAFC914B1B7892490122C2
:1045600018000BF0F3FC914B00221A708C4B1B7857
:104570008F49012218000BF0E9FC8E4B1B7841217A
:104580001800FCF70DF80300DAB2FB1D1A7019E0F1
:10459000FB1D1B785BB2DBB2013BDAB2FB1D1A706C
:1045A000854B1B680A331900FB1D00229A56130025
:1045B0009B019B18CB183B6080493B684122180047
:1045C0000CF056FEFB1D1B785BB2002BE0DC7A4B37
:1045D0001B680A331C00774B1B7841211800FBF73E
:1045E000DFFF0300DBB21A0013009B019B18E318E6
:1045F0003B60704B1B7841211800FCF757F80B000B
:10460000DBB21A006D493B6818000CF031FE6A4BB2
:104610001B68684A12781A705F4B03221A70B7E061
:10462000674B1B78002B00D1AFE0664B1B78202B2B
:1046300008D1594B04221A70584B1B78180000F00F
:1046400067FF11E05F4B1B78702B0DD1534B1B782C
:10465000180000F0ADFD504B00221A705A4B1B6839
:10466000802118000CF0CAF9554B00221A708CE01A
:10467000564B1B78002B43D0544B00221A70484BEA
:104680001B785349012218000BF060FC434B1B7848
:104690001A00504B9A5CBB1D1A70BB1D1B787F2BF8
:1046A0000CD9BB1D1B785B42DAB2BB1D1A703C4BA8
:1046B0001B784949012218000BF048FC384B1A7846
:1046C000BB1D1B785BB2190010000BF049FD344B89
:1046D0001B784249012218000BF038FCBB1D1B78E7
:1046E0005BB23F4A1278934205DD334B1B681800DA
:1046F00000F000FB04E0294B1B78180000F008FFD5
:10470000384B1B78002B13D0364B00221A70244BE9
:104710001B783549012218000BF018FC204B1B7840
:104720003249012218000BF011FC1B4B05221A70B4
:10473000234B1B78002B2AD0224B1B78202B26D111
:10474000174B1B782A49012218000BF0FFFB124B74
:1047500005221A701BE01A4B1B78002B11D0194B45
:104760001B780D2B0DD10D4B1B78180000F020FD90
:10477000094B00221A70144B1B68802118000CF0A2
:104780003DF90F4B00221A7002E0C04600E0C0461F
:10479000C046BD4603B090BD6387FF1F5287FF1F11
:1047A0004F87FF1F44660100706601005887FF1F96
:1047B000A85F01005487FF1F7888FF1FC880FF1F74
:1047C0004E87FF1F4D87FF1FBC86FF1FC286FF1F3E
:1047D00098660100CC86FF1F64610100B866010085
:1047E0005687FF1FC086FF1FBC660100D866010008
:1047F0009062010080B500AF084B00221A70084B90
:104800001B6874221A70064B1968002200230800E6
:1048100000F024FCC046BD4680BDC046C186FF1FD7
:104820007C88FF1F80B582B000AF0200BB1D1A80DC
:104830003B1D0A1C1A80184B1B78184901221800CE
:104840000BF084FB144B1A78BB1D1B881900100059
:104850000BF086FC104B1B781149012218000BF05D
:1048600075FB0D4B1A783B1D1B88190010000BF0CF
:1048700077FC094B1B780B49012218000BF066FBF3
:10488000054B1B780849012218000BF05FFBC0465E
:10489000BD4602B080BDC0464F87FF1F04670100C0
:1048A00010670100186701003067010080B582B011
:1048B00000AF0200FB1D1A702B4B10221A70FB1D5B
:1048C0001B78002B03D1284B00225A703DE0FB1DC2
:1048D0001B78012B17D1254B1B78012B03D1224BC1
:1048E00009225A7031E0214B1B78002B03D11E4B5B
:1048F0000A225A7029E01D4B1B78022B25D11A4B36
:1049000001225A7021E0FB1D1B78022B03D1164BAC
:1049100004225A7019E0FB1D1B78042B03D1124BA3
:1049200002225A7011E0FB1D1B78032B0DD1104B96
:104930001B6841221A700E4B1B680A330D49412235
:1049400018000CF095FC00F017F8FB1D1B78032BEA
:1049500004D0054B0021180001F0DEFD00231800F3
:10496000BD4602B080BDC0466887FF1F5587FF1F48
:104970007888FF1FC880FF1F90B583B000AF00F09C
:104980008DFC00F025FD0C4B1B68FC1D180000F091
:10499000B1F903002370FB1D1B78002B08D0074BD7
:1049A00001221A70064B1B68802118000CF026F8B3
:1049B000C046BD4603B090BD7888FF1FC686FF1F66
:1049C000BC86FF1F80B582B000AF7860044B1B68C7
:1049D000012118000CF012F8C046BD4602B080BD9F
:1049E000BC86FF1F80B500AF044B1B684021180038
:1049F0000CF004F8C046BD4680BDC046BC86FF1F13
:104A000080B584B000AFF860B960FB1D1A70FB6818
:104A10005A1CFA601A78BB68591CB9601B789A4214
:104A200008D1FB1DFA1D1278013A1A70FB1D1B7884
:104A3000002BECD1FB1D1B785A425341DBB218000E
:104A4000BD4604B080BD000080B582B000AF786084
:104A5000074B01221A70074B1A6880235B0019006C
:104A600010000BF0CBFFC046BD4602B080BDC04673
:104A70008088FF1FBC86FF1F90B585B000AF7860AF
:104A80000A00FB1C1A700F23FB1800221A7011E099
:104A90000F243B191B789B007A68D3181968FB1CFC
:104AA0001B78012218000BF051FA3B191A783B19B8
:104AB00001321A700F23FB181B789B007A68D318F9
:104AC0001B68002BE4D1C046BD4605B090BD80B543
:104AD00000AFC046BD4680BD80B584B000AF3B1D71
:104AE00031221A703B1D0021180001F015FD030052
:104AF0001A00034B1A70C046BD4604B080BDC046C4
:104B00006587FF1F80B584B000AF0200FB1D1A70DF
:104B10000E23FB1850221A70FB1D1B78002B27D088
:104B2000544B1B785449012218000BF00FFA0F2345
:104B3000FB1800221A700CE04E4B1B784F490122E3
:104B400018000BF003FA0F217B181A787B1801323A
:104B50001A700F23FA180E23FB1812781B789A424A
:104B6000EAD3444B1B784449012218000BF0EEF9BC
:104B7000404B1B784249012218000BF0E7F9414BEA
:104B80001B78002B07D13B4B1B783F4901221800B3
:104B90000BF0DCF906E0374B1B783C49012218008A
:104BA0000BF0D4F9334B1B783949012218000BF074
:104BB000CDF9304B1A78374B1B78190010000BF0E9
:104BC000CFFA2C4B1B783449012218000BF0BEF9A8
:104BD000284B1A78314B1B78190010000BF0C0FAE3
:104BE000244B1B782E49012218000BF0AFF9214B02
:104BF0001A782C4B1B78190010000BF0B1FA1D4BE2
:104C00001B782949012218000BF0A0F9274B1B78CB
:104C1000002B06D0174B1B782549012218000BF0FA
:104C200095F9144B1A78214B1B78190010000BF0E2
:104C300097FA104B1B781F49012218000BF086F9D8
:104C40000C4B1B781C49012218000BF07FF9094B13
:104C50001A781A4B1B78190010000BF081FA054BDB
:104C60001B781749012218000BF070F9C046BD46A9
:104C700004B080BD4F87FF1FCC780100D0780100C1
:104C8000D47801005087FF1FDC780100E078010034
:104C9000E47801005287FF1FF07801005387FF1F5F
:104CA000FC7801005487FF1F087901005687FF1F19
:104CB000187901001C790100207901006587FF1F28
:104CC0002C79010004207146084202D0EFF30980DC
:104CD00001E0EFF3088081690A88054B9A4200D011
:104CE000FEE702318161202101607047C04600006B
:104CF000ABBE0000B0B584B000AF744678600F233F
:104D0000FB1807221A70BB4B1B78002B01D106231E
:104D10006CE17B68002B03D07B681B78742B01D976
:104D2000042363E1B44B1B781900B44A0B00DB0089
:104D30005B18DB009B5C002B01D0012356E17B68F4
:104D40001B7829332200002118000CF063F80300BF
:104D5000BB60BB68002B01D1052347E1A64B1B7844
:104D60001A00A64944201300DB009B18DB00CB1877
:104D70001B181B780133DCB2A04944201300DB0070
:104D80009B18DB00CB181B18221C1A709A4B1B783F
:104D900018009A4A40210300DB001B18DB00D318DF
:104DA0005B1800221A70944B1B781800934A41211B
:104DB0000300DB001B18DB00D3185B1800221A70FD
:104DC0008D4B1A78BB685A70BB6800221A70BB689A
:104DD0000D221A75BA6801235B42DC179360D46018
:104DE000854B1B781800854A29210300DB001B181E
:104DF000DB00D3185B181B78002B2DD07B689A79C9
:104E0000DB791B0213439BB27D4A934224D07B681B
:104E10001A795B791B0213439BB2794A93421BD0E8
:104E20007B681B7829335B001A00BB681A61724BE0
:104E30001B781800714A28210300DB001B18DB00D7
:104E4000D3185B181B78002B0AD0BB681B6908338A
:104E50001A00BB681A6103E0BB68012252421A6162
:104E60007B681B780933DAB2BB68DA75BB68183324
:104E70001A1DBB689A61BB6898697B680133092277
:104E800019000CF0F5F9BB689B69093318007B68C1
:104E90000A3319007B681B781A000CF0E9F9564BAD
:104EA0001B781800554A28210300DB001B18DB0083
:104EB000D3185B181B78002B03D0BB6801225A75EE
:104EC00002E0BB6804225A754B4B1B7818004B4A12
:104ED00029210300DB001B18DB00D3185B181B78AB
:104EE000002B1ED07B689A79DB791B0213439BB29F
:104EF000434A934215D07B681A795B791B021343AE
:104F00009BB23F4A93420CD0BB689B691A78BB683E
:104F10009B6920210A43D2B21A70BB6800229A759D
:104F200002E0BB6801229A75334B1B781C00BB68FA
:104F30009B699A1C314944202300DB001B19DB00CC
:104F4000CB181B181B7813702B4B1B7819002B4A9E
:104F50000B00DB005B18DB00D3182C33BA681A6037
:104F60000BF014FE244B1B781900244A0B00DB00C5
:104F70005B18DB00012199540BF0E2FD0F257C1931
:104F8000BB680021180003F077FD030023707B1934
:104F90001B78072B01D1002328E0174B1B78190041
:104FA000164A0B00DB005B18DB00D3182C331B68A0
:104FB00018000BF08BFF104B1B7819000F4A0B00E9
:104FC000DB005B18DB00D3182C3300221A600BF0D7
:104FD000DDFD094B1B781900084A0B00DB005B184C
:104FE000DB00002199540BF0ABFD05231800BD46F2
:104FF00004B0B0BD1989FF1F1889FF1FD088FF1F9B
:10500000FFFF000080B582B000AF0200FB1D1A70E8
:10501000104B1B78002B01D1062316E0FB1D1B78DB
:10502000002B01D0042310E00B4B1B78FA1D1278E3
:105030009A4201D1002308E00BF0A8FD064BFA1DAF
:1050400012781A700BF07CFD00231800BD4602B0E8
:1050500080BDC0461989FF1F1889FF1FB0B58EB0EB
:1050600000AFF8603A607B603723FB1800221A70AB
:10507000FB68002B03D0FB681B78742B01D9042339
:105080008CE0484B1B78002B01D1062386E0464B71
:105090001B781900454A0B00DB005B18DB009B5CAA
:1050A000002B01D0012379E03F4B1A781023FB1825
:1050B0005A703B687A68134314D010217B180A2277
:1050C0001A707A1801235B42DC1713615461364B66
:1050D0001A787B185A707B1812221A723A687B1859
:1050E0009A610BE010217B180C221A707B180D229C
:1050F0001A727A1801230024136154613A687B689C
:1051000013435A1E9341DAB2274B1B781800140040
:10511000264A42210300DB001B18DB00D3185B1872
:10512000221C1A70FB6801229A701F4B1B78190011
:105130001E4A0B00DB005B18DB00D3180433FA684F
:105140001A600BF023FD184B1B781900174A0B004F
:10515000DB005B18DB00022199540BF0F1FC3725D2
:105160007C191023FB180021180003F0E1FC030058
:1051700023707B191B78072B01D100230EE00BF065
:1051800005FD094B1B781900084A0B00DB005B1872
:10519000DB00002199540BF0D3FC05231800BD4619
:1051A0000EB0B0BD1989FF1F1889FF1FD088FF1FDF
:1051B000B0B58CB000AFFB1D1870224B1B78002BD4
:1051C00001D106233AE0204B1B781C001F48230026
:1051D000DB001B19DB001B5C002B01D001232DE041
:1051E00008243B190C201870174B18783B1958707D
:1051F0003B1900201872FB1D1B78DBB2190000233D
:105200001A0020003B1819615A612F257C193B18A0
:105210000021180003F08CFC030023707B191B781D
:10522000072B08D0F12B02D0052B02D005E001237B
:1052300004E0042302E0002300E004231800BD463C
:105240000CB0B0BD1989FF1F1889FF1FD088FF1F40
:1052500090B58BB000AF0F4B1B78002B01D11B23F7
:1052600014E03B000E221A700B4B1A783B005A7068
:105270003B0000221A723B0027243A19DA603B00F7
:105280000021180003F054FC3B191B781800BD46A0
:105290000BB090BD1989FF1F1889FF1FB0B58AB0E8
:1052A00000AF484B1B78002B01D1062386E0464B0C
:1052B0001B781900454A0B00DB005B18DB009B5C88
:1052C000022B0CD0404B1B781900404A0B00DB002E
:1052D0005B18DB009B5C002B01D006236EE03A4B91
:1052E0001A783B005A700BF051FC374B1B781800B2
:1052F0002723FA1835490300DB001B18DB005B5C31
:105300001370314B1B781900304A0B00DB005B181F
:10531000DB00002199540BF013FC2B4B1B78180079
:105320002A4A42210300DB001B18DB00D3185B185C
:105330001B78002B29D13B000C221A703B000D2258
:105340001A723A00002300241361546126257C1947
:105350003B000021180003F0EBFB030023707B19D6
:105360001B78072B29D00BF011FC174B1B78190069
:10537000164A0B00DB005B18DB002721791809783F
:1053800099540BF0DDFB012318E03B000A221A7050
:105390003B0003221A720C4B1B7818000B4A422167
:1053A0000300DB001B18DB00D3185B1800221A7007
:1053B0003B000021180003F0BBFB00231800BD4692
:1053C0000AB0B0BD1989FF1F1889FF1FD088FF1FC1
:1053D00080B588B000AF244B1A783B005A703B0070
:1053E0000A221A703B0003221A723B0000211800A7
:1053F00003F09EFB1C4B1B7819001C4A0B00DB00C2
:105400005B18DB00D3182C331B68002B19D0164B0C
:105410001B781900154A0B00DB005B18DB00D31862
:105420002C331B6818000BF051FD0F4B1B78190033
:105430000E4A0B00DB005B18DB00D3182C33002274
:105440001A600BF0A3FB084B1B781900074A0B00EE
:10545000DB005B18DB00002199540BF071FBC046A8
:10546000BD4608B080BDC0461889FF1FD088FF1F09
:10547000B0B58CB000AFFB1D1870224B1B78002B11
:1054800001D106233AE0204B1B781C001F48230063
:10549000DB001B19DB001B5C002B01D001232DE07E
:1054A000194B187808243B1958703B190C201870B8
:1054B0003B1902201872FB1D1B78DBB21900002378
:1054C0001A0020003B1819615A612F257C193B18DE
:1054D0000021180003F02CFB030023707B191B78BC
:1054E000072B08D0F12B02D0052B02D005E00123B9
:1054F00004E0042302E0002300E004231800BD467A
:105500000CB0B0BD1989FF1F1889FF1FD088FF1F7D
:10551000B0B586B000AF75460200FB1D1A701723A8
:10552000FB1800221A704C4B1B78002B01D106236C
:105530008DE04A4B1B781900494A0B00DB005B18D1
:10554000DB009B5C002B01D0012380E0FFF780FE95
:1055500003001A00FB1D1B78934208D01723FC1888
:10556000FB1D1B781800FFF723FE03002370172391
:10557000FB181B78002B03D01723FB181B7866E061
:105580002B001A00002120200BF044FC03003B619B
:10559000324B1A783B695A703B6908221A703A6993
:1055A00001235B42DC179360D4602C4B1B781900FD
:1055B0002B4A0B00DB005B18DB00D31830333A6951
:1055C0001A600BF0E3FA254B1B781900244A0B00F4
:1055D000DB005B18DB00032199540BF0B1FA0F25B7
:1055E0007C193B690021180003F0A2FA0300237024
:1055F0007B191B78072B29D00BF0C8FA174B1B78A7
:105600001900174A0B00DB005B18DB0000219954DE
:105610000BF096FA114B1B781900114A0B00DB00B6
:105620005B18DB00D31830331B6818000BF04EFCFE
:105630000A4B1B7819000A4A0B00DB005B18DB00E1
:10564000D318303300221A60012300E00023180031
:10565000BD4606B0B0BDC0461989FF1F1889FF1F9F
:10566000D088FF1F90B583B000AF70463E4B1B78CB
:10567000002B01D1062372E03C4B1B7819003C4AF9
:105680000B00DB005B18DB009B5C002B01D00123CF
:1056900065E003001A00002120200BF0BBFB030093
:1056A0007B60324B1A787B685A707B6806221A70CE
:1056B0007B6801221A727B6801225A722B4B1B787D
:1056C00019002B4A0B00DB005B18DB00D3183033CA
:1056D0007A681A600BF05AFA244B1B781900244A96
:1056E0000B00DB005B18DB00042199540BF028FA57
:1056F000FC1C7B680021180003F01AFA03002370D9
:10570000FB1C1B78072B29D00BF040FA174B1B789A
:105710001900174A0B00DB005B18DB0000219954CD
:105720000BF00EFA114B1B781900114A0B00DB002D
:105730005B18DB00D31830331B6818000BF0C6FB76
:105740000A4B1B7819000A4A0B00DB005B18DB00D0
:10575000D318303300221A60012300E00023180020
:10576000BD4603B090BDC0461989FF1F1889FF1FB1
:10577000D088FF1F80B588B000AF3B4B1B78002B53
:1057800001D106236BE0394B1A783B005A703B007D
:105790000A221A703B0003221A723B0000211800F3
:1057A00003F0C6F90BF0F2F9304B1B781900304AC0
:1057B0000B00DB005B18DB00002199540BF0C0F9F3
:1057C0002A4B1B7819002A4A0B00DB005B18DB0010
:1057D000D3182C331B68002B19D0244B1B781900CD
:1057E000234A0B00DB005B18DB00D3182C331B684B
:1057F00018000BF06BFB1D4B1B7819001C4A0B00AB
:10580000DB005B18DB00D3182C3300221A60174B27
:105810001B781900164A0B00DB005B18DB00D3185D
:1058200030331B68002B19D0104B1B781900104A1D
:105830000B00DB005B18DB00D31830331B6818004B
:105840000BF044FB094B1B781900094A0B00DB00E5
:105850005B18DB00D318303300221A6000231800D5
:10586000BD4608B080BDC0461989FF1F1889FF1FBB
:10587000D088FF1FB0B586B000AF7546786039603C
:105880007B683B613B691B78012B02D0022B56D011
:1058900065E1B8493A681300DB009B18DB00CB18C0
:1058A0002C331B68002B04D11723FB1807221A7016
:1058B00055E1B0493A681300DB009B18DB00CB18B8
:1058C0002C331B6818000BF001FBAA493A6813003F
:1058D000DB009B18DB00CB182C3300221A602B0056
:1058E0001A0000210C200BF095FA0300BB60BB6886
:1058F000002B04D11723FB1807221A7012E0BB6893
:1059000000221A70BB6800221A719A493A68130083
:10591000DB009B18DB00CB1834331B683968BA688E
:10592000100098470BF032F992493A681300DB00F7
:105930009B18DB0000225A540BF002F90FE13B6880
:10594000DAB23B691100180000F0ACFD031E47D12C
:105950003B6918000BF0BAFA86493A6842201300F6
:10596000DB009B18DB00CB181B181B78002B32D0F8
:105970002B001A0000210C200BF04CFA0300BB6036
:10598000BB6801221A707B493A681300DB009B1840
:10599000DB00CB1804331A68BB689A60BB689B684D
:1059A00004229A7073493A681300DB009B18DB00ED
:1059B000CB1834331B683968BA68100098470BF06D
:1059C000E5F86C493A681300DB009B18DB00002205
:1059D0005A540BF0B5F81723FB1807221A70BDE0D4
:1059E0007B68187C63493A681300DB009B18DB0076
:1059F000CB181133021C1A707B689968DA685D4C09
:105A000038680300DB001B18DB00E318083319605B
:105A10005A6058493A681300DB009B18DB00CB182A
:105A200004331B6802229A7052493A6842201300DC
:105A3000DB009B18DB00CB181B181B78002B10D148
:105A40000F243B194C4A12781A703B68DBB21800DD
:105A5000FFF7D8FAFFF722FC3B191B781800FFF775
:105A6000D1FA3B69597C43483A681300DB009B1824
:105A7000DB00C31804331B680A00093AD2B25A701B
:105A80003C493A681300DB009B18DB00CB18043359
:105A90001B68181D3B695B69092219000BF0E8FBC4
:105AA00034493A681300DB009B18DB00CB18043341
:105AB0001B680D3318003B695B6909331C002D49D5
:105AC0003A681300DB009B18DB00CB1804331B681B
:105AD0005B781A0021000BF0CBFB2B001A00002191
:105AE0000C200BF097F90300BB60BB68002B04D1BE
:105AF0001723FB1807221A7024E0BB6801221A70D2
:105B00001C493A681300DB009B18DB00CB180433F8
:105B10001A68BB689A60BB689B680022DA7001F063
:105B2000D9FA03001A00BB681A7112493A681300C7
:105B3000DB009B18DB00CB1834331B683968BA686C
:105B4000100098470BF022F80A493A681300DB006E
:105B50009B18DB0000225A540AF0F2FFC0467B6813
:105B600018000BF0B3F91723FB181B781800BD467B
:105B700006B0B0BDD088FF1F1889FF1FB0B588B030
:105B800000AF7546786039600023FB607B68BB61BD
:105B9000E6493A681300DB009B18DB00CB18303372
:105BA0001B6818000BF092F9E0493A681300DB001B
:105BB0009B18DB00CB18303300221A60BB691B78BE
:105BC000092B00D1CCE002DC072B07D0E6E1102B3B
:105BD00000D1FDE0152B00D1D1E1DFE1BB699B785D
:105BE000002B00D0A1E0D1493A681300DB009B18DC
:105BF000DB005B5C012B00D097E0CC493A682820A1
:105C00001300DB009B18DB00CB181B181B78002B44
:105C100000D184E0C5493A682A201300DB009B18B4
:105C2000DB00CB181B181978C0483A6841241300D0
:105C3000DB009B18DB00C3181B191B7899422ED977
:105C4000BA493A6841201300DB009B18DB00CB18EF
:105C50001B181B780133DCB2B4493A6841201300A9
:105C6000DB009B18DB00CB181B18221C1A700C23BE
:105C7000FB1818000AF07CFDAC493A684320130079
:105C8000DB009B18DB00CB181B181878FB681F2261
:105C9000134019003B68A64A08F0BCFF3FE0A34947
:105CA0003A681300DB009B18DB00CB182C331B6811
:105CB00018000BF00BF99D493A681300DB009B18A4
:105CC000DB00CB182C3300221A602B001A000021B5
:105CD0000C200BF09FF803007B617B69002B12D036
:105CE0007B6902221A717B6900221A708F493A6817
:105CF0001300DB009B18DB00CB1834331B683968BA
:105D00007A69100098470AF041FF88493A68130001
:105D1000DB009B18DB0000225A540AF011FF7B685D
:105D200018000BF0D3F8072366E12B001A000021BE
:105D300006200BF06FF80300FB61FB69002B00D11C
:105D400032E1FB6902221A70BB699B78042B03D1F4
:105D5000FB6900229A7027E1FB6902229A7023E115
:105D60002B001A00002106200BF054F80300FB6101
:105D7000FB69002B00D119E1FB6903221A70BB6992
:105D80009B78072B20D1FB6900229A70BB69DA78D7
:105D9000FB69DA70BB691A79FB691A7113243B1924
:105DA000644A12781A703B68DBB21800FFF72AF9D0
:105DB000FFF74EFA03001A00FB695A713B191B7872
:105DC0001800FFF71FF9F1E0FB6901229A70EDE07E
:105DD00056493A681300DB009B18DB005B5C012B23
:105DE00000D0A9E051493A6829201300DB009B1834
:105DF000DB00CB181B181B78002B00D18FE04B4920
:105E00003A6841201300DB009B18DB00CB181B18FD
:105E100000221A7045493A682B201300DB009B18BA
:105E2000DB00CB181B18197840483A68402413004F
